:020000040002F8
:10DB000018F09FE518F09FE518F09FE518F09FE5E5
:10DB100018F09FE518F09FE518F09FE518F09FE5D5
:10DB200084DB020040DB020044DB020048DB020031
:10DB30004CDB020054DB020050DB020058DB020029
:10DB4000860000EA870000EA880000EA890000EA0F
:10DB5000B20000EA890000EAA80000EAA823400019
:10DB6000986A0000CCF04000600000001CF8400003
:10DB7000F00300002CF14000F00600000CFC400017
:10DB8000F0030000DF00A0E300F021E130001FE51A
:10DB900030101FE5003081E00040A0E103D0A0E19B
:10DBA00090219FE5030054E104208434FCFFFF3AF8
:10DBB000D700A0E300F021E15C001FE55C101FE549
:10DBC000003081E00040A0E103D0A0E164219FE5A6
:10DBD000030054E104208434FCFFFF3ADB00A0E39F
:10DBE00000F021E188001FE588101FE5003081E08A
:10DBF0000040A0E103D0A0E138219FE5030054E1FB
:10DC000004208434FCFFFF3AD200A0E300F021E1BD
:10DC1000AC001FE5AC101FE5003081E00040A0E142
:10DC200003D0A0E110219FE5030054E104208434D7
:10DC3000FCFFFF3AD100A0E300F021E1C8001FE59E
:10DC4000C8101FE5003081E00040A0E103D0A0E152
:10DC5000E8209FE5030054E104208434FCFFFF3AF0
:10DC60000080A0E30090A0E300A0A0E300B0A0E348
:10DC700000C0A0E3D300A0E300F021E110011FE504
:10DC800010111FE5003081E00040A0E103D0A0E1C9
:10DC9000AC209FE5030054E104208434FCFFFF3AEC
:10DCA0000E0000EB170000EB0000A0E30010A0E363
:10DCB0000020A0E30030A0E30040A0E30050A0E378
:10DCC0000060A0E30070A0E30080A0E30090A0E368
:10DCD00000A0A0E300B0A0E300C0A0E3530000EA6E
:10DCE00060009FE560109FE560209FE50130A0E1A6
:10DCF000023083E0030051E1044090340440813459
:10DD0000FBFFFF3A1EFF2FE144009FE544109FE513
:10DD1000003081E00040A0E10020A0E3030054E1D6
:10DD200004208434FCFFFF3A1EFF2FE1FEFFFFEAD0
:10DD300024009FE51EFF2FE1AAAAAAAACCCCCCCC36
:10DD4000DDDDDDDDBBBBBBBB8C2E04000020400055
:10DD5000A8030000A8234000986A0000408D4000FE
:10DD600004F01FE59D21000004F01FE59F21000045
:10DD700004F01FE5A121000004F01FE5A32100002D
:10DD800004F01FE5A52100000000000000000000D5
:10DD90000000000000000000000000000000000083
:10DDA0000000000000000000000000000000000073
:10DDB0000000000000000000000000000000000063
:10DDC0000000000000000000000000000000000053
:10DDD0000000000000000000000000000000000043
:10DDE0000000000000000000000000000000000033
:10DDF0000000000000000000000000000000000023
:10DE00000F502DE9700900FA0F50BDE804F05EE2F2
:10DE10000000000000000000000000000000000002
:10DE20000F502DE9AE080FFA0F50BDE804F05EE286
:10DE3000000000EB5E0000EB2C008FE2000C90E88D
:10DE400000A08AE000B08BE001704AE20B005AE1CA
:10DE50000000001A560000EB0F00BAE818E04FE28D
:10DE6000010013E303F0471013FF2FE1C44E01003C
:10DE7000F44E0100102052E27800B0287800A1286A
:10DE8000FBFFFF8A822EB0E13000B0283000A128CD
:10DE900000409045004081451EFF2FE10030B0E377
:10DEA0000040B0E30050B0E30060B0E3102052E265
:10DEB0007800A128FCFFFF8A822EB0E13000A12863
:10DEC000003081451EFF2FE16E0051E3EC43000A54
:10DED000700051E32A42000A660051E32D4A000A0D
:10DEE000650051E32B4A000A670051E3294A000A02
:10DEF000610051E3284A000A003090E52334B0E184
:10DF000080108123690051E3B341000A640051E3AA
:10DF1000B141000A750051E3AF41000A6F0051E3BF
:10DF2000F941000A780051E33B49000AE90051E356
:10DF30000E44000AE40051E30C44000AF50051E3EA
:10DF40000A44000AEF0051E33549000AF80051E3A2
:10DF50003549000A003090E5A333B0E180108123F9
:10DF6000630051E3E543000A730051E33049000ABE
:10DF7000E30051E3EF43000AF30051E32E49000AA6
:10DF80000000B0E31EFF2FE11FB50098019910F0CB
:10DF9000ECFE11F038ED04000020002112F07AEAC6
:10DFA000401C60600020002112F098EAE0601FBD74
:10DFB00010B510BD7A4600EB0210A0E1F1FFFFFAA8
:10DFC0001CC09FE50FC08CE001001CE30DE08F1228
:10DFD0000FE0A0011CFF2FE101C08FE21CFF2FE129
:10DFE00011F0D2FD2D00000003002DE9EFFFFFFA34
:10DFF0000300BDE8FE4600FA00F072F81248C1695D
:10E00000090909010831C16100F071FCE1204002F9
:10E0100000F0FAFD0DA002F00FFA13A215A118A04E
:10E0200002F00AFA1A4800680104090C19A002F06B
:10E0300003FA1C4800684005410F1BA002F0FCF9E0
:10E0400006F02FF9FCE7000000208000424B333639
:10E05000333320496E697469616C2046696E697357
:10E0600068210D0A0000000032303A32373A32356A
:10E07000000000004A756E2031302032303231000D
:10E08000404025732025732121210D0A0000000046
:10E09000406E8000434849502049443A25780D0A93
:10E0A000000000000008800072657365745F72658F
:10E0B00061736F6E3A25780D0A00000001B5009873
:10E0C000411E0091FBD208BD11484168090A0902AE
:10E0D0005A3141604168090A0902A531416070471F
:10E0E0000B4800B58168090E09068160FFF7ECFF57
:10E0F0000120C005016882139143016005494A6807
:10E1000004239A434A60C16882119143C16000BDF3
:10E11000000C8000000880007047020010B501204C
:10E12000FE4B1C56944204DA401C0006000E0C28DC
:10E13000F7D91B56934206D0002904D1012802D9F1
:10E14000401E0006000E10BD00207047412149040A
:10E15000086B0722104308637047400876380006B2
:10E16000001670470068704701607047EC494A6BC1
:10E1700053005B08C20713434B63EA48416B4900F5
:10E1800049081143416370477F2800D97F2001036C
:10E19000E5480143E548C160C068E549C86070478B
:10E1A00070B5E24CA06F01256D042843A067A06FF5
:10E1B000DF4E4036B063022000F0B6FCA06FA843EB
:10E1C000A067A06FB06370BD70B5D84C216B012003
:10E1D000C00381432163216BD54D2963216B01432A
:10E1E0002163206B2863206BD24908432063206B96
:10E1F0000121890308432063206B2863CE482863EC
:10E200000A2000F091FCCD482063286370BDF8B56A
:10E21000C74DC0352868800880002860286808211C
:10E2200008432860C24C80342069C9060843206135
:10E23000206949000843206121690120400481438D
:10E2400021610A2000F070FC2069C009C001206132
:10E2500020690221084320610A2000F065FC606902
:10E2600001210903084360610A2000F05DFC606938
:10E2700001214903084360610A2000F055FC6069F0
:10E280000121C902084360610A2000F04DFCA74E3D
:10E29000F16840208143F160F068A54FF8600A20E2
:10E2A00000F042FCF06880210843F060F068F860FC
:10E2B0000A2000F039FC606901210904084360610B
:10E2C000322000F031FC9A4840308068C000C10C18
:10E2D0007D208002FBF764FDC005C00D01000090A9
:10E2E00097A002F0A9F828689B490840286029688F
:10E2F0000098000201432960322000F015FC61699A
:10E300000120000481436161F16880208143F16054
:10E31000F068F8600A2000F007FCF068402108432C
:10E32000F060F068F86061690120C00281436161BA
:10E33000616980008143616160690121090388434B
:10E340006061206949010843206128680121084370
:10E35000286029680820814329602169C00681431B
:10E3600021612069400040082061F8BD70B57B48FC
:10E370006F4D28606D4C2060794868606060794816
:10E38000A860A0607848E860E06078482861206173
:10E390007748686160617748A861A0617648E86164
:10E3A000E06176482862206275486862606275485C
:10E3B000A862A0627448E862E0627448286320633F
:10E3C0007348686360637348A863A0637248E86336
:10E3D000E063574E71484036306320677048706381
:10E3E00060677048B063A0670021F163E16750483F
:10E3F0006D4A803002604B22520642600F22D206E4
:10E4000082608205C260694A02610122520542614E
:10E41000674A8261674AC261674A0262674A42622A
:10E42000674A82628122D200C262664A4263C21394
:10E430008263C1633E4B6448C0331860180041607A
:10E440008160C160016141618161C16101624162BC
:10E450002520C00398625D48D8625D4818631800A3
:10E4600041635C4898631800C1635B481104016014
:10E470005A4941605A4981605A49C1605A4901610B
:10E480005A4941615A4981615A49C1615A490162F7
:10E490005A4941625A4981625A49C1625A490163E3
:10E4A0005A4941635A4981634916C1635948016811
:10E4B000114301608168914381607F21C943C1603C
:10E4C000FFF7A5FEFFF76CFE606A0121890688430D
:10E4D0006062606A6862A06F49010843A067A06F2C
:10E4E000B063FFF771FE322000F01EFB3520FFF70E
:10E4F0004BFE70BD30B50122D205116B10231943BC
:10E5000011634549202508230724002803D001284A
:10E5100002D0022882E0D9E0ACE00000A0070400AD
:10E520004000820040088200620C0060A823400086
:10E53000006E8000000088130410881304D0881334
:10E5400076616C75655F6B63616C5F726573756C2A
:10E55000743D25780D0A0000FF00FEFF3F32B0C475
:10E5600000C2958200A0422F625C0360CFAA56FFD2
:10E570001F50204600CCA785C03F02AA2FC0B00F75
:10E580004C2280706FF8039C233FD90F0810008045
:10E5900023BF42CC5093300078E92631C5DD9C99E9
:10E5A000C00185EA80010180D6BE898E82030A00FF
:10E5B0000205201000C9080010100101004E103C97
:10E5C0003038100E46C42C081100011048103436A3
:10E5D000801CFF0140D90000006F80000204050785
:10E5E0000A0C0F12161A1E22262B30353A40454BC4
:10E5F00051575D636970767C83898F969CA2A8AE23
:10E60000B4BABFC5CACFD4D9DDE1E5E9EDF0F3F581
:10E61000F8FAFBFD40088000400A800029D1342030
:10E6200010630868800A8002403008604868800AE9
:10E630008002403048608868800A800240308860EC
:10E64000C868800A80024030C8600869800A800279
:10E65000403008614869800A80024030486188691A
:10E66000800A800240308861C869800A8002403098
:10E67000C86130BD106B284310630868800A8002AF
:10E68000403008604868800A8002403048608868EE
:10E69000800A800240308860C868800A800240306A
:10E6A000C8600869800A8002403008614869800AB1
:10E6B0008002403048618869800A80024030886169
:10E6C000C869800A80024030C8612AE0106BA84304
:10E6D0001063086A800A800240300862486A800A33
:10E6E000800240304862886A800A80024030886236
:10E6F000C86A800A80024030C862086B800A8002C3
:10E7000040300863486B800A800240304863886B61
:10E71000800A800240308863C86B800A80024030E3
:10E72000C863106B18431063106BC008C0001063FF
:10E73000106B2043106330BD00B547498BB00162B8
:10E7400046490122416246494161010020310A7374
:10E750000C224A7343498162434901604349416045
:10E760004349C161434981610020694642000A541E
:10E77000401C0006000E2828F8D33F482822FBF74B
:10E780004BFBFFF7F3FD3DA001F056FE4149202071
:10E79000486348633F494048803108623F494048E8
:10E7A0008163404981633E493F48403108603C4AAB
:10E7B0003E49403211603A4B3D4A40335A605A60FC
:10E7C0001A009060100081603A481100C86065200E
:10E7D000C86039480861086138484861486138486C
:10E7E0008861384888613848C8612020C861294854
:10E7F000416B0006274A8143014351631100496B75
:10E8000042149143234A51631100496B81430143F0
:10E81000100041630120FFF76DFE0BB000BD2B49D6
:10E820002B4801632B494163704701072A48090FB0
:10E8300001702748026901231B059A43026102699E
:10E840000F23DB019A4302610269C9010A43026195
:10E85000704721480078704765E1020069E10200D5
:10E8600049E102004DE1020019E102006DE1020000
:10E870005BE102001BE1020000418100525720636E
:10E880006F6D6D6F6E2072656720696E69740D0A19
:10E8900000000000400082002001DF0140008008ED
:10E8A00040088200C000C0005507500065006500A8
:10E8B0006500700055070000060600000404000013
:10E8C000034900102020000003000010715C6A0A58
:10E8D000806E800041C42A0800204000B748012112
:10E8E00001714179C90701D00021017170470120F0
:10E8F000C00501688213914301608168FF22813263
:10E900009143803181608168C909C9018160C16A10
:10E9100010221143C162AA4A8021D161416B402279
:10E9200011434163A748A84908617047A34800788C
:10E930007047A24908707047F0B50120C0054168D2
:10E940000223194341604168994341608168FF2275
:10E9500081329143803181608168C909C901816038
:10E960009749CC6980252C43CC61CC691C43CC6190
:10E97000CB6904242343CB61CB6901263343CB61AC
:10E98000CF6908231F438D4BBC465E70876885683E
:10E9900097438D4C954322690F231B039A4303230E
:10E9A0001B03D218F0239A433032964622691B0289
:10E9B0009A4303235B03D318F02293438760724684
:10E9C00022616746CF614268324342608222CA6157
:10E9D0006033236180358560F0BD784A10B550788A
:10E9E000012821D176498220C861D4784804FF21CA
:10E9F00081312300FBF77EEA0616040E0E19191664
:10EA000083688B43803383608168C909C901491CCD
:10EA1000816007E08368DB09DB019B1C83608368FE
:10EA20000B4383600020507010BD8368DB09DB015D
:10EA30005B1CF3E76148407800280AD1624801690D
:10EA40000122120491430161D00141680122114366
:10EA500041607047F0B55949FF25C8700121C905CB
:10EA60005A4A574C8135CE108F110300FBF742EA0A
:10EA70000658040D132E3A588868C009C001401C7E
:10EA800088608868A843803049E0506A304350620B
:10EA9000506AB84304E0506A30435062506A3843C9
:10EAA0005062506A01231B0418435062526A48485E
:10EAB0004262E26902208243E261486B40221043D5
:10EAC00048638868C009C001801C25E0506A304353
:10EAD0005062506AB8435062506A01231B041843C5
:10EAE00050620AE0506AB0435062506AB8435062C4
:10EAF000536A0120000483435362526A34484262DD
:10EB0000E26902208243E261486B4022104348637D
:10EB10008868C009C001401C8860886828438860F4
:10EB2000F0BD264880787047244900B5CA78294945
:10EB30001300FBF7E0E9040E0306090E7D214901ED
:10EB400007E07D21890104E0234902E00A00521E0A
:10EB5000FDD2401EFAD200BD204C2000FFF7E4FF9A
:10EB60001F491B48416219484162174940390869E9
:10EB70001C4A0004000C801808612000FFF7D4FF35
:10EB8000FEE70E4900B5C9780B00FBF7B4E9060EA5
:10EB90000406080A0C0E02210CE005210AE00921F6
:10EBA00008E00B2106E00D2104E0032102E00A0049
:10EBB000521EFDD2401EFAD200BD000001204000CE
:10EBC000400080006666000040088000A8234000E6
:10EBD000006E8000BC0C0000E02E0000B80B0000AE
:10EBE0000C2293700000333610B53649C406012359
:10EBF0000022002C01DA4B7000E04A70C00701D0FF
:10EC00008B7010BD8A7010BD012210B5D205D1687D
:10EC100002239943D16001002B48FBF7C1F82B492F
:10EC200070228A63CA632749401E020288788001E5
:10EC3000024348784001024325481B320260254ABE
:10EC400042604222026100228261C261224803685E
:10EC50002024234303600A704A6010BD10B51C4A8B
:10EC600005E00378401C9468E402FCD5D3600B00F7
:10EC7000491E0904090C002BF3D110BD114910B530
:10EC80000020486008700124A40214482100FBF70A
:10EC9000EBF813482100FBF7E7F810BD0FB410B5EF
:10ECA000A0B0229923AA68460FF0ECFB01040400EF
:10ECB000090C6846FFF7D2FF200020B010BC08BC4A
:10ECC00004B01847182040000024F400000A800017
:10ECD000006A80001040000040008000AC26400028
:10ECE000AC2A400030B5040900070023000F0029BA
:10ECF00006D0012909D0022904D0032905D103E057
:10ED00000C2302E0082300E0402320251021002AE4
:10ED100004D0012A05D0022A07D105E02B430B437A
:10ED200003E02B438B4300E0AB43E10008182F497D
:10ED300080004018036030BD00B50222012104208C
:10ED4000FFF7D0FF022201210520FFF7CBFF0222AF
:10ED500001210620FFF7C6FF022201210720FFF74D
:10ED6000C1FF00BD01090007000FC90008181F49B5
:10ED7000800040180068C007C00F704702090007F4
:10ED8000000FD200101882001848121810680223D1
:10ED9000002901D0184300E098431060704710B577
:10EDA00004000121FFF7EAFF00212000FFF7E6FF42
:10EDB00010BD002801D00E49086070470B48016A59
:10EDC000890A89023C3101620848C0300168032287
:10EDD000120411430160C168C2131143C1600548A8
:10EDE000016882131143016070470000000A80002F
:10EDF000242040004000800010B504000078002866
:10EE000007D020000FF024FE0104090C2000FFF7BA
:10EE100025FF002010BD0FB410B5FFB0A1B0A2991E
:10EE2000A3AA68460FF02EFB04000FF017F8002885
:10EE300006D02104090C00206A460FF077FA04E09E
:10EE40002104090C6846FFF709FF7FB0200021B0BC
:10EE500010BC08BC04B01847F8B506000027FB48F2
:10EE60003D004021FBF700F800247057222811D004
:10EE700004DC002809D0202804D136E02C2809D051
:10EE80003D2832D0E00743D04BE0A00752D4042005
:10EE9000044346E0002D11DD701900902038C07F3A
:10EEA0005C280BD1E00709D000980FF0D1FD009944
:10EEB000421C481EFAF7B0FF6D1E32E0A00706D4D0
:10EEC000E00707D064086400022084431DE0E007E7
:10EED00030D0F7E70320DD4904437F1C7019BA00E6
:10EEE0005118401C8039C8671BE0002D07DD7019E0
:10EEF00000902038C07F5C2801D1E007D4D1A00762
:10EF00000FD4E0070DD0640864000020705508E0BD
:10EF100001200443CD487F1CBA00711910188038B5
:10EF2000C167600704D40520C0016D1C85429CDBCD
:10EF3000A00701D50220F8BD012F01DA0020F8BD9D
:10EF4000C34C60684068002802D1C2A0FFF763FF8D
:10EF5000BE4D2E2128680FF036FD00281BD02968F1
:10EF6000411A286800F026FB050016D06068392693
:10EF700005213601C9018019FAF776FF606805217D
:10EF8000AD683A00C901B14B8019A8476068801983
:10EF9000FFF732FFD2E70021E3E70120F8BDAB48DD
:10EFA00040387047F3B50C00A8490025403983B0BC
:10EFB000A9A0FFF730FF00263700009621E0B2003D
:10EFC0005118019289680968002917D022680398AE
:10EFD0000FF060FD002810D10098401C012800901F
:10EFE00039D09B4A02289E49019852683AD080182D
:10EFF000806802689BA0FFF70EFF7F1C761C402EE6
:10F0000006DA9348FF22416809325258BA42D6D8EC
:10F01000009801281DD1002D1BD028000FF018FDED
:10F020000100206805220E1A8119D201914210D2E6
:10F03000039A411980183200FAF7EEFE206803990E
:10F040008019421C202322600B542268039800215F
:10F05000815405B0F0BD7E49019849684018806828
:10F060000568CAE7801880682A0003687FA0FFF758
:10F07000D2FEC2E710B5012101F00CFA002800D041
:10F08000012010BDFEB507000020441E0D00002F1A
:10F09000009401900ED06E48416803204002091888
:10F0A0004869401CC20F121852085200801A0026EC
:10F0B00008611FE16A4970A0FFF7ADFE21E12868F1
:10F0C00039560D29F5D00A2918D01B291CD0019AD0
:10F0D000002A7DD0002C1FDA0C005B29E9D01B210F
:10F0E00039542868401C28603C542868401C28601B
:10F0F00057484068406800280BD088E03E542E6096
:10F1000001F000FA0120FEBD0120841E0094019050
:10F11000F0E021005CA078E0009A002A02DA74296D
:10F1200000911AD00099412935D0422933D0742951
:10F130001AD01B2139542868401C28603C54286888
:10F14000401C2860009939542868401C28604048B9
:10F1500040684068002814D018E041481B21017025
:10F1600044703B480221017039480178402937D367
:10F170003B490E7006700020019044A0FFF74BFE43
:10F18000B8E0009A21004AA0FFF745FE3448067017
:10F190002F4806703BE02E480523426803204002BA
:10F1A00011180869DB014343401C9B18C322D2009D
:10F1B0009B18C20F121852085200801A08610522CB
:10F1C000D201190038000FF0FCEC39003AA000E041
:10F1D00020E0FFF720FE38000FF03AFC2860D5E76A
:10F1E0002A68BB5C1E4A5354491C0906090E01706B
:10F1F0002B68FB5C6D2B7DD15654491C0170406817
:10F200004068002803D111002CA0FFF704FE002065
:10F2100001906FE0082909D07F2907D0092953D030
:10F220000B4840684068002854D056E0002861D060
:10F23000401E286006484068406800285AD10822CD
:10F2400011001FA0FFF7E7FD54E00000EC2E400086
:10F25000282040000D0A000025730D0A0000000060
:10F26000AC2E400025732573200000002573257304
:10F2700020257320000000002573696E6275665FAB
:10F280006E756C6C0D0A00001B2563004572726F71
:10F29000723A206573635F746167206275666665A4
:10F2A00072206F766572666C6F770D0A0000000041
:10F2B0001B256325630000000D0A23202573000031
:10F2C00025632025630000003E5429003800FFF725
:10F2D00069FE0FE0CDA0FFF79EFD28680521401CC8
:10F2E000C9018842286005D3C949CAA0FFF793FD28
:10F2F0002E6006E02868C019FFF7BCFE012800D187
:10F30000DDE60020FEBD70B51320D4F7DCFBCA4C4F
:10F31000A06800280AD0CA4EC84D3068C9A1281874
:10F320000D380FF05BFB002855D144E06168080000
:10F33000FF301130011FFFF7A5FE002870D0606874
:10F34000FF30113005000FF083FB00281BD06168EF
:10F3500003267602881940690522D2015043C32250
:10F360004018D20080180522FF31D20111310FF070
:10F3700028EC606881194869401CC20F12185208B5
:10F380005200801A48616068FF3011300FF060FB56
:10F3900001002800FFF760FD012802D0022807D0F5
:10F3A0003EE02A003CD09A49A9A0FFF734FD37E09F
:10F3B0009749AAA01CE03068ADA128180D380FF0BD
:10F3C0000DFB002807D13068ACA128180D380FF0CC
:10F3D00005FB002811D0A87A30380006000E0EF088
:10F3E00040FDA87A312806D00120A0608849A6A057
:10F3F000FFF711FD14E00020F7E70EF035FD0228BD
:10F400000ED13068A3A1281809380FF0E7FA0028B8
:10F4100006D13068894A0104090C00200EF086FFED
:10F4200001F070F870BD30B58349496800290DD0EE
:10F430000268002A0CD08268002A09D0CA1DF9325D
:10F4400093681400402B16D200220CE0012030BD3E
:10F450000420C04330BD95006D18AD68854201D1D0
:10F46000002030BD521C9342F5D89A0051185B1C05
:10F47000A3608860F4E70520C04330BD70B5016823
:10F4800000290AD08168002907D06B4C00216368ED
:10F490001D00FF3301339A681FE00420C04370BD94
:10F4A0008E007619B668864216D1521E501A002870
:10F4B0009A6007DD82008800401901000C31083095
:10F4C0000FF03EEB6068FF210931095800228900E6
:10F4D00008188260100070BD491C8A42E0D80520DF
:10F4E000C04370BDF8B50E00040000250DE02000FB
:10F4F0000C34FFF798FF070006D04549220067A0AB
:10F50000FFF789FC3800F8BD6D1CB542EFDB002029
:10F51000F8BD70B50E000500002406E028000C358B
:10F52000FFF7ACFF002803D1641CB442F6DB0020D7
:10F5300070BD4149012088600020704770B53E4C85
:10F54000604D6068002806D103212800D4F7A6FB8F
:10F550000028606016D02900FAF786FC5A48192165
:10F56000FFF7C0FF05001BD06068002803D0D4F768
:10F570001BFC0020606026492A0054A0FFF74BFCCA
:10F58000280070BD0524E4432149220055A0FFF75F
:10F5900042FC1F4922005EA0FFF73DFC200070BD29
:10F5A000616801200860486064491320D4F768FA54
:10F5B000002070BDF3B50F0000241F4D260081B060
:10F5C00017E0A100081880680068002806D0002F06
:10F5D00006D001993A000FF05DFA04E0641C06E0E1
:10F5E00001990FF024EB00280BD0641C761C402CF2
:10F5F00005DA6868FF2109310958B142E1D80020D5
:10F60000FEBD6968A00040188068FEBD256300004B
:10F61000AC2E400025734572726F723A20696E708D
:10F62000757420627566666572206F766572666CA9
:10F630006F770D0A0000000028204000AC26400033
:10F640001C20400041542B41544D4F44453D300057
:10F6500025730D0A4552524F520D0A0025737379D6
:10F660006E746178206572726F720D0A000000007E
:10F6700041542B41544D4F44453D310041542B41A1
:10F68000544D4F44453D320025730D0A4F4B0D0A32
:10F690000000000041542B48454C50002573726512
:10F6A0006769737465725F636F6D6D616E647320FB
:10F6B00065727220636D64206E756D733A25640DFA
:10F6C0000A000000180B0000B00704002573457203
:10F6D000726F723A2072657475726E3A2025640DED
:10F6E0000A00000025734572726F72303A2046613D
:10F6F000696C656420746F20637265617465206352
:10F700006C6920656E763A2025640D0A00000000C1
:10F7100025734572726F72313A204661696C656477
:10F7200020746F2063726561746520636C69206565
:10F730006E763A2025640D0A0000000007F30200EF
:10F74000F8B51927FFF72BFC0100F9A0FFF763FBC1
:10F750000024FF4D260029E0A100081800918068D0
:10F76000006800281FD0FFF71AFC010000982A68E3
:10F77000801880684368002B00D1F6A30268F6A0C9
:10F78000FFF749FB38001838761C86420BD1FFF78B
:10F7900006FC0100F3A0FFF73EFBFFF700FC0100B1
:10F7A000F2A0FFF738FB641C402C05DA2868FF2123
:10F7B00009310958B142CFD8F8BD10B51C00012A53
:10F7C0001AD0022A22D160680FF042F901281DD117
:10F7D00060680FF0EBF80406240E032C17D220000B
:10F7E0000EF03FFB012C02D0E74901200860FFF733
:10F7F000D6FB0100E5A00EE00EF036FB0400FFF79B
:10F80000CEFB01002200E4A0FFF705FB10BDFFF7CF
:10F81000C6FB0100E5A0FFF7FEFA10BD10B51C0005
:10F82000012A14D0022A1CD160680FF011F90128B6
:10F8300017D160680FF0BAF80006000E022811D246
:10F840000EF015FBFFF7ABFB0100D0A00EE00EF0B1
:10F8500011FB0400FFF7A3FB01002200D6A0FFF775
:10F86000DAFA10BDFFF79BFB0100D0A0FFF7D3FA37
:10F8700010BD10B51C00012A86B002D0032A17D093
:10F8800020E00020059004900090019002900390E9
:10F8900004A80EF0FAFA68460EF006FBFFF77FFBAD
:10F8A00001006B4604AAC9A0FFF7B5FA06B010BD67
:10F8B00060680FF0CDF8062804D1A0680FF0C8F8F2
:10F8C0000F2806D0FFF76BFB0100B8A0FFF7A3FAE3
:10F8D000ECE760680EF0D1FAA0680EF0DDFA0EF0E9
:10F8E0000FF8FFF75CFB0100A8A0EFE73EB5002092
:10F8F0001C00012A00900190029002D0022A0BD035
:10F900000FE068460EF0DFFAFFF749FB01006A4698
:10F91000B4A0FFF780FA3EBD60680FF099F80A289E
:10F9200006D0FFF73CFB0100A0A0FFF774FA3EBD34
:10F9300060680EF0C0FA0DF0E3FFFFF730FB010046
:10F9400092A0F2E71FB500201C00012A0090019050
:10F950000290039002D0022A0BD00FE068460EF00E
:10F96000C1FAFFF71CFB01006A46A2A0FFF753FA99
:10F970001FBD60680FF06CF80D2806D0FFF70FFB75
:10F9800001008AA0FFF747FA1FBD60680EF0A2FAD7
:10F990000DF0B6FFFFF703FB01007CA0F2E730B5E6
:10F9A00089B01C00150020216846FAF75DFA012D88
:10F9B00002D0022D0CD01FE068460EF0A9FAFFF726
:10F9C000EEFA01006A468FA0FFF725FA09B030BDB4
:10F9D00060680FF03DF81F280ED860680FF038F807
:10F9E00001066068090E0EF084FA0DF089FFFFF73A
:10F9F000D6FA010065A003E0FFF7D1FA01006BA081
:10FA0000FFF709FAE2E7FFF7CAFA01005FA0FFF784
:10FA100002FA0EF0F2FBFEE738B51C00012A08D00E
:10FA2000032A15D0FFF7BBFA010060A0FFF7F3F936
:10FA300038BD0EF09BFA05000EF089FA0400FFF7BE
:10FA4000AEFA01002B00220073A0FFF7E4F938BDE5
:10FA500060680EF0ABFF0006000E0EF069FAA068B9
:10FA60000023042269460EF0B9F9684600880EF0BA
:10FA700072FA0DF045FFFFF792FA010043A0D5E7B7
:10FA800010B5012A08D0022A11D0FFF788FA010028
:10FA900046A0FFF7C0F910BD0EF070FA0400FFF7A2
:10FAA0007EFA0100220062A0FFF7B5F910BD586888
:10FAB0000EF07CFF0006000E0EF05CFA0DF020FF49
:10FAC000FFF76DFA010031A0E3E738B51C00022A08
:10FAD0001BD0032A18D160680023022269460EF069
:10FAE0007DF9A06800783038010668460078090E74
:10FAF00037281BD8012919D80EF04EFAFFF74FFA14
:10FB0000010022A0FFF787F938BD586800230222C0
:10FB100069460EF063F968460078372806D8FFF783
:10FB20003EFA694609780A09D20089E093E00000AC
:10FB300025733D3D3D3D4275696C642D696E2043E2
:10FB40006F6D6D616E64733D3D3D3D0D0A000000BB
:10FB50002C20400000000000257325733A202573F7
:10FB60000D0A000025730D0A0000000025733D3DBD
:10FB70003D3D5573657220436F6D6D616E64733DDD
:10FB80003D3D3D0D0A0000003020400025730D0A68
:10FB90004F4B0D0A0000000025730D0A2B41544DF8
:10FBA0004F44453A25640D0A0000000025730D0AF4
:10FBB0004552524F520D0A0025730D0A2B444154F1
:10FBC000414D4F44453A25640D0A000025730D0A46
:10FBD0002B56455253494F4E3A25732C25730D0A27
:10FBE0000000000025730D0A2B534E3A25730D0AB1
:10FBF0000000000025730D0A2B555549443A257322
:10FC00000D0A000025730D0A2B4445564E414D4503
:10FC10003A25730D0A00000025730D0A2B57445432
:10FC20003A25642C203078253034580D0A00000025
:10FC300025730D0A2B534C4545503A25640D0A0097
:10FC40005118FF4A0907890E89180A680100FDA0AA
:10FC5000FFF7E1F838BDFFF7A2F90100FE4851E7D0
:10FC600038B51C00022A1AD0032A28D16068002364
:10FC7000022269460EF0B2F8A0680078303801061A
:10FC800068460078090E37281AD8022918D80EF0CD
:10FC90008FF9FFF784F90100EF48203814E0586825
:10FCA0000023022269460EF099F80EF08CF9040048
:10FCB000FFF775F901002200E8A0FFF7ACF838BDA6
:10FCC000FFF76DF90100E448FFF7A5F838BD10B55E
:10FCD000012A02D0022A0BD01BE00EF078F90400B2
:10FCE000FFF75DF901002200E0A0FFF794F80AE0B9
:10FCF00058680EF05BFE00040521000C09038842E1
:10FD000007D20DF092FEFFF74AF90100D2482038E1
:10FD100003E0FFF744F90100CF48FFF77CF810BD7E
:10FD200030B51C001500022A85B023DC142168467A
:10FD3000FAF79AF8022D0BD068460EF066F9FFF735
:10FD40002EF901006A46CEA0FFF765F805B030BD78
:10FD500060680EF07DFE020061686846FAF75CF8A4
:10FD600060680EF075FE0006000E69460EF033F96D
:10FD7000002806D0FFF713F90100B748FFF74BF84A
:10FD8000E4E70DF0BDFDDAE710B5012A06D0FFF774
:10FD900006F90100B048FFF73EF810BD0EF04BF930
:10FDA000002801D0BBA400E0BDA4FFF7F8F80100D3
:10FDB0002200BFA0FFF72FF810BD30B5BF491D00CE
:10FDC000140087B0BEA000F037FB012C02D0022C3B
:10FDD00014D022E004A80EF05BF9FFF7E0F8010070
:10FDE0006846047C437C827CC07C6D461DC56A46A7
:10FDF000137D527DB6A0FFF70EF818E06868002367
:10FE0000062204A90DF0EAFF062104A80DF009FF5F
:10FE100004A80EF01AF9002807D0FFF7C0F8010077
:10FE20008D48FEF7F8FF07B030BD0DF069FDFFF714
:10FE3000B6F8010088482038F3E770B51D00012AA4
:10FE400002D0022A0BD023E00EF052F90400FFF793
:10FE5000A6F801002200A8A0FEF7DDFF18E00024AC
:10FE600006E0005730380A2818D2641C2406240EF5
:10FE700068680EF0EDFDA0426868F2D80EF096FDBD
:10FE80000006000E0F2809D80EF02AF90DF038FDF3
:10FE9000FFF785F801007048203803E0FFF77FF88E
:10FEA00001006D48FEF7B7FF70BD10B5012A06D0FE
:10FEB000FFF775F801006848FEF7ADFF10BD0EF0C2
:10FEC0001BF90400FFF76BF8010022008EA0FEF77B
:10FED000A2FF10BD1FB500201C00012A0090019058
:10FEE0000290039002D0022A0BD01FE068460EF069
:10FEF00021F9FFF754F801006A4688A0FEF78BFF4E
:10FF00001FBD60680EF0A4FD10280FD860680EF0C9
:10FF10009FFD00066168000E0EF0FCF80DF0F0FC8D
:10FF2000FFF73DF801004C48203803E0FFF737F8B1
:10FF300001004948FEF76FFF1FBD10B5012A06D02A
:10FF4000FFF72DF801004448FEF765FF10BD0EF0E5
:10FF5000FBF8FFF724F801003F482038F4E71CB510
:10FF60001C00022A2ED160680EF072FD012804D018
:10FF700060680EF06DFD0C2824D160680EF068FDFD
:10FF80000128606819D00023062269460DF026FF7B
:10FF9000062168460DF045FE68460DF070FE411CD6
:10FFA00010D00006000E01F053F9FEF7F8FF010033
:10FFB00029482038FEF72FFF1CBD0EF0F7FC000685
:10FFC0000016EEE7FEF7EBFF01002348F2E7FEB56F
:10FFD0001C00012A30D0042A2FD160680EF0E6FC04
:10FFE0000604A068360C0EF0E1FC0504E0682D0C58
:10FFF0000EF0DCFC0404240C23002A0031004CA089
:020000040003F7
:1000000000F01AFA5649B01F884217D2FF20F43088
:10001000854213D820000A38091F88420ED20A20D0
:1000200021004143681C704382008018401C40102E
:10003000814203DB220095E09FE0ADE098E0000004
:10004000000A800025730D0A2B4750494F3A25308E
:1000500032780D0A00000000ACFB020025730D0A87
:100060002B4C45443A25640D0A00000025730D0A07
:100070002B424C45425546533A25640D0A00000078
:1000800025730D0A2B4E414D453D25730D0A4F4BEF
:100090000D0A0000434F4E4E4543544544000000B6
:1000A000444953434F4E4E454354454400000000DD
:1000B00025730D0A25730D0A00000000DC080400FA
:1000C000257320617267632025640D0A000000001B
:1000D00025730D0A2B4D41433A20253032582530E7
:1000E0003258253032582530325825303258253094
:1000F00032580D0A0000000025730D0A2B504F578F
:1001000045523A25580D0A0025730D0A2B525353B8
:10011000493A256464426D0D0A00000025730D0AFA
:100120002B50494E434F44453A25730D0A000000B9
:10013000636F6E6E5F696E74763A25642C636F6EC2
:100140006E5F6C6174656E63793A25642C636F6EC3
:100150006E5F7375705F746F3A25640D0A0000005E
:100160007B0C0000290030000DF0FFFF002814D0A8
:10017000FEF715FF0100564816E001A80EF024F81E
:10018000FEF70DFF6946098900916946CB888A8888
:10019000010050A0FEF73FFEFEBD0DF0B1FBFEF7E3
:1001A000FEFE01004A482038FEF735FEFEBD10B5C0
:1001B000012A06D0FEF7F3FE01004548FEF72BFEAC
:1001C00010BD0EF01FF810BD70B51C00022A02D041
:1001D000032A12D025E05868007830380006000E57
:1001E00001281ED80DF012FC0400FEF7D8FE010015
:1001F00022003EA0FEF70FFE70BD60680078303828
:100200000506A0682D0E0EF0D1FB060001003BA0F4
:1002100000F012F9012D04D830000DF0B2FB0028D7
:1002200006D0FEF7BCFE01002948FEF7F4FD70BDC4
:10023000FEF7B5FE0100626834A0FEF7ECFD0DF09C
:100240005FFB310028000DF0C6FF70BD70B5354D65
:100250001C00012A02D0022A0ED006E028790728C5
:1002600008D031A131A000F0E7F8FEF798FE0100B8
:1002700017482AE038A1F5E7606838A10EF0D6ECFF
:10028000002812D0606836A10EF0D0EC00280CD007
:10029000606834A10EF0CAEC00280BD0606832A16F
:1002A0000EF0C4EC002805D00AE02879072807D012
:1002B000012003E02879072802D1002001F0C2F9CB
:1002C000FEF76DFE010002482038FEF7A4FD70BD68
:1002D000ACFB020025730D0A2B424C455041524D98
:1002E0003A25642C25642C25640D0A0025730D0A1B
:1002F0002B424155443D25640D0A0000626175643E
:10030000726174653D25640D0A00000025730D0AB5
:100310002B424155443D25730D0A0D0A4F4B0D0AE2
:10032000000000007C3340004F6666005573616733
:10033000653A20416476206F6E2F6F66662E2041ED
:1003400064762069732063757272656E746C7920AF
:1003500025730D0A000000004F6E00006F6E000054
:100360004F4E00006F6666004F464600704770B5FE
:10037000244C6268216824A000F05EF80020206010
:100380006060206804210843206020682022104318
:10039000206020688A041043206020680B05184301
:1003A00020602568C804054325606568854365604D
:1003B00065681543656062681A436260626802435B
:1003C000626060680843606070BD704770B50D4E34
:1003D000B568680703D50420044300F04AFD6802AD
:1003E00004D501208005044304F0D0F9E80204D5C7
:1003F000012000050443EAF790FCB460B06828438C
:10040000B06070BD400080005359535F5265673043
:100410007831303A25782C5359535F5265673078DC
:1004200031313A25780D0A000020704770470120CD
:10043000704770477047704700207047704770B52D
:100440003A4C0D0021886288914206D3218801220E
:100450009202511A6288891802E061882288891AFA
:100460000904090CA9420ED3228831498B180100D6
:100470002A001800F9F7D0FC208840198005800D6B
:100480002080012070BD628821882AA0FFF7D4FF58
:10049000002070BD70B5254C0D0021886288914206
:1004A00003D321886288891A05E0618801229202BB
:1004B000511A228889180904090CA9420DD36288AF
:1004C0001B4989182A00F9F7A7FC608840198005A4
:1004D000800D60802806000E70BD002070BD70B5D4
:1004E000124D00246C802C80FF2601361A48310002
:1004F000F9F7BAFC19483100F9F7B6FC184804605E
:100500006C6070BD70B509480024448004800125EA
:10051000AD0214482900F9F7A7FC13482900F9F7A0
:10052000A3FC124804601248046070BD34204000EF
:100530002C2F40006E6F20656E6F756768206275A6
:1005400066662066696C6C20646174612025642C89
:1005500025642121210D0A0028244000282540007F
:100560000C204000AC264000AC2A40001C2040007B
:1005700020204000FB4BD969FF22F1320A400243A0
:10058000981308400243F8480840024358030140CA
:100590000A43DA6118680028FCDB7047F14910B59E
:1005A0000A68002AFCDBF14A0A600A68002AFCDBC0
:1005B0000022531E4B60521C082AFBD309690160BC
:1005C000EBA0FFF739FF002010BDE64801680029C5
:1005D000FCDBE649016001680029FCDB00214A1EC2
:1005E0004260491C0829FBD300697047DD48016857
:1005F0000029FCDBE249016001680029FCDB40695D
:100600000006000E704770B50E000400FFF7DDFF16
:10061000DC4D0100A868814248D1DB4AD14B811AE8
:1006200090421AD008DCD94940180ED0D849401859
:1006300010D0012809D10DE009208002081A04D049
:10064000D449401809D0012807D0D8690F210903DF
:10065000884305E0D869D04901E0D869CF4908400E
:10066000D861002E22D0022C20D8D869B1020122F4
:10067000520211430843D86118680028FCDBFFF7D9
:10068000A4FFA968884211D1012C02D0022C02D00B
:1006900003E0C34900E0C349196018680028FCDB87
:1006A0007D200003186018680028FCDB70BDB54889
:1006B000B5498068421A884219D008DCBA49401806
:1006C00013D0BA4940180ED0012809D10BE00920F7
:1006D0008002101A04D0AF49401808D0012806D073
:1006E000982101208FE7B24902E0AC21F9E7AC2163
:1006F0000220F7E7A348A4498068421A884219D02B
:1007000008DCA949401813D0A84940180ED0012888
:1007100009D10BE009208002101A04D09D4940182D
:1007200008D0012806D09C2101206CE7BC2102E002
:10073000BC21F9E794210220F7E710B5FFF745FF48
:10074000904C0100A0609BA0FFF776FEFFF74EFFE4
:100750008D4AA1688B1A914221D008DC924A8918EF
:1007600019D0924A891812D0012909D10FE0092124
:100770008902591A04D0874A891810D001290ED04D
:100780009C2803D09C210120FFF73DFF10BDBC2811
:10079000FCD0BC2106E0BC28F8D0BC21F3E79428AB
:1007A000F4D094210220EFE76E4AD0691168002945
:1007B000FCDBC02101401023194303071B0F0B432F
:1007C0000121490201400B43674901400B430121CC
:1007D000890608400343D3616A48734980684942E7
:1007E000884201D1774800E07748106010680028FF
:1007F000FCDB704700B5FFF7D7FF5A48C16970228C
:100800009143C161C16910221143C161016800298E
:10081000FCDB00BD10B5FFF790FFFFF7EBFF0820F2
:10082000FFF7A8FE10BD704770B50600F9F738EB6A
:100830000500F9F740EB040052480179AB2914D1C7
:100840004079BC2811D1FFF732FF464908680028DB
:10085000FCDB2D20000606430E6008680028FCDB48
:10086000FFF748FF59A0FFF7E7FD002D01D1F9F789
:100870002CEB002C01D1F9F730EB70BDF7B514006B
:100880000D000026002A8CB049D0F9F70AEB0A9037
:10089000F9F710EB3349099008680028FCDB601E6B
:1008A00000274009401C089023E02520000629006D
:1008B00001432C48016001680029FCDB0021203540
:1008C0006A46284880688B00491C0829D050F8D314
:1008D00078012030A04203D20C988019202202E037
:1008E0000C98A21B80196946F9F796FA08982036E9
:1008F0007F1CB842D9D81B487D2109030160002123
:100900004A1E4260491C0829FBD30A98002801D1DD
:10091000F9F7DAEA0998002801D1F9F7DEEA0FB011
:10092000F0BDF7B5150000268CB0002A08917DD0E7
:1009300001208004814279D3F9F7B2EA0B90F9F7EC
:10094000BAEA084C0A9020680028FCDB0D48C22156
:100950008170FFF7ACFE681E00274009401C09901B
:1009600082E000000020800000FCFF0300D007347C
:100970006964656E746966793A307825780D0A0085
:1009800000D007233C2040001340C800EDBFAEFF5D
:10099000001D8FFF0024E8FFFF0FDFFFFF0FFEFEAB
:1009A00000D0076400D00767EDCEE3FF000E5AFFCA
:1009B0008C080000666C6173685F6D69643D257822
:1009C0000A00000000D0073600D00737666C61735C
:1009D000685F65726173655F736563746F72000051
:1009E00078012030A84203D20C98811920220AE015
:1009F0000020411E6A468300401C0828D150FAD3CB
:100A00000C98AA1B81196846F9F706FAA048D12369
:100A1000C37000202036694682008A586260401CFC
:100A20000828F9D39A480178A62900E037E016D1C2
:100A30004178B32913D121680029FCDB8078C228D2
:100A40000AD1D12B08D1089801218904884226D3E4
:100A50000B2189060843206020680028FCDB0898E9
:100A60002030089009987F1CB842B9D8FFF742FEA1
:100A70007D2000032060864800218170C17008003D
:100A8000491E6160401C0828FBD30B98002801D147
:100A9000F9F71AEA0A98002801D1F9F71EEA3EE7A9
:100AA0007C4810B501680029FCDBC26978497A4BA3
:100AB0008968994215D0794C794BA14202D0641EC5
:100AC000A14204D1510149090122120403E051015C
:100AD00049090122D2041143C16103600168002960
:100AE000FCDB10BDF8B58F18080A3C0A1E00000296
:100AF0002402A04208D0651A2A001800FFF7BEFEA3
:100B000021007A1A701900E01800FFF7B7FE0020E4
:100B1000F8BDFFB516000B0081B0FFF756FD5C4C29
:100B2000A168884208D0FFF750FD01005DA0FFF7E3
:100B300083FCFF2005B0F0BDA6209F19190A3D0ACD
:100B4000207009022D02B320A9420BD019006E1AA1
:100B5000607004983200FFF7E4FE049829007A1AC6
:100B6000801903E06070049832001900FFF7D9FE85
:100B7000002020706070DDE7F0B5050001200C005A
:100B800016000003814289B027D8002C25D0290BFC
:100B900009030F183800FFF747FE3005000D3F1816
:100BA00019E0202C01DD202600E026000020009026
:100BB000404832008068290001ABFFF793FF002016
:100BC00000903C4832008068390001ABFFF7A1FF7C
:100BD000A41BAD19BF19002CE3DC09B0F0BDF0B5C2
:100BE000050001200C0016000003814289B0F4D8F2
:100BF000002CF2D0290B09030F1A3800FFF714FE5E
:100C00003005000D3F18202C01D9202600E02600D9
:100C100000200090274832008068290001ABFFF7D0
:100C200061FF00200090234832008068390001AB4A
:100C3000FFF76FFFA41BAD19BF19002CE3D1CCE760
:100C4000F8B5134CAB2016000D002071FFF7BDFC6A
:100C5000A168884204D018A0FFF7EEFBFF20F8BD82
:100C60001CA0FFF7E9FB2D0B2D03BC20371300263A
:100C7000607106E02800FFF7D7FD012000032D1862
:100C8000761CBE42F6DB002020716071F8BD0000CA
:100C90003C2040000020800013311C001423C200BF
:100CA00000D00727666C617368203D203078257876
:100CB0000D0A00002C334000666C6173685F6D693B
:100CC0006420213D206765745F666C6173685F49CD
:100CD000440D0A00666C6173685F65726173650D2F
:100CE0000A000000F7B505000100140075A0FFF729
:100CF000A3FB032D0AD2794F012638783100A94091
:100D0000084204D1290076A0FFF796FBFEBD797852
:100D10006001491CF9F744F80400010076A0FFF7D0
:100D20008BFB0198791988707748002D0CD0012D24
:100D300013D0022DEAD1C26804218A43C2608460C4
:100D4000C2680A43C260FEBDC16849084900C1606B
:100D50000460C1683143C160FEBDC26802218A439C
:100D6000C2604460ECE710B5684C0100227868A0CE
:100D7000FFF762FB2078401C0006000E032820705D
:100D800004D16D4A00210120FFF7ACFF20780A282A
:100D900005D17D22012112010800FFF7A3FF10BD3C
:100DA000010010B565A0FFF747FB10BD010010B5AD
:100DB00069A0FFF741FB10BD08B56E487D230122F5
:100DC0000090DB0011000020BFF312FA6A487D2377
:100DD000012200901B0104211000BFF309FA08BD95
:100DE00070B50400010065A0FFF726FB032C31D28B
:100DF000454A0421002C04D0012C06D0022C08D135
:100E000014E0D0684008400002E0D0680223984314
:100E1000D0603248012203781500A540AB43E51CA1
:100E2000AA4093435A07037003D00BE0D06888436D
:100E3000EEE70122D205D3680B43D360554A13680D
:100E40008B431360A200002112181162017852A096
:100E5000FFF7F2FA70BD2C49CA68012383401A409B
:100E6000CA6070472849CA68012383401A40CA6093
:100E70007047F8B5244DE86800248005470F012627
:100E80003000A040010038420FD014480219927877
:100E9000002A02D1EA688A43EA60A1000818016AC0
:100EA000002902D02006000E8847641C032CE7DBD3
:100EB000F809E9680143E960E968C9093940490767
:100EC000F7D1F8BD74696D6572305F7365745B2529
:100ED000645D2C2564200D0A0000000050334000A2
:100EE000746D72305F5B25645D206E6F7420696E77
:100EF00069740D0A0000000074696D65725F7661A7
:100F00006C3A25640D0A000000658000482040000E
:100F100074696D6572305F305F6973725F68616EAE
:100F2000646C65723A25642C746573745F636E74C7
:100F30003A25640D0A0000008813000074696D658D
:100F400072305F315F6973725F68616E646C657285
:100F50003A25640D0A00000074696D6572305F32D5
:100F60005F6973725F68616E646C65723A25640DC7
:100F70000A000000670D0300A10D030074696D6590
:100F800072305F6465696E69745B25645D200D0A6B
:100F90000000000040008000746D72305F656E7666
:100FA0002E696E69745F656E3A25780D0A0000003F
:100FB0000F48002181605A214160A521416070479E
:100FC0000B4900224A6088605A204860A52048608A
:100FD000704707485A214160A52141607047044984
:100FE00000224A6088605A204860A5204860704707
:100FF000000C800070B504000D000120C005C16820
:1010000042139143C1602000303000060222000EDE
:101010001100FDF767FE5248E2002A43024351489F
:101020000260514981600321C16050490A68C313BD
:101030001A430A60032D03D10168042211430160A1
:1010400070BD30300006002210B5000E1100FDF713
:1010500049FE44480168C908C90001604348016865
:10106000C213914301604004C16842131143C1603F
:1010700010BD3C4810B50168C213114301603C4AE1
:10108000012111700168C943890703D1016939A0A1
:10109000FFF7D2F910BDF8B500226B461A80344D27
:1010A0002A70304C2268D243920708D02268C000D0
:1010B0004018001D02432260FF262D360BE0002061
:1010C000F8BD69460888401C08800888B04205D8E9
:1010D0000A20FDF756FD28780028F2D0287801284C
:1010E00003D120698003000CA8802068C009C001DA
:1010F0002060A888F8BDF8B5224CE0690127FF04FC
:101100003843E061E1692048C16101210720FFF710
:1011100071FF174D002601210720FFF7BCFF6988EA
:10112000401868807D20C000FDF72BFD761C360638
:10113000360E062EEFD368880621F8F731FE01003F
:101140001248F8F72DFE0100E88011A0FFF774F9AE
:10115000E069B843E061E1690B48C161F8BD000096
:10116000800B12000067800020000100400080001A
:101170004A2040006164635F76616C75653D257847
:101180000D0A0000A8234000006E8000B54A000050
:101190007265666572616E63655F766F6C746167B8
:1011A000653D25640D0A000070B562484821F8F7D6
:1011B0005BFE61490320D2F7A3FF00210320D2F791
:1011C000DBFF5C4C12202200A0765C481B320368D7
:1011D0001500511E02209847002803D028000CF06B
:1011E00014FFA07628000DF033FCA07601F0BCF8C7
:1011F00001F06EF800F0BCFF02F0ECFA02F0E0FC47
:1012000002F08AFD04F0DAFF4D4801230322072192
:10121000D2F75CFE01210170D2F771FE49A0FFF701
:101220000BF970BD70B5434D0024287E052807D00A
:101230004B49800008588047287E401C01242876AE
:1012400047492200143147A0FFF7F6F8200070BD8F
:101250000102CA1C10B5484802230831D2F736FEF5
:101260000121017013214170D2F749FE10BD10B564
:10127000040030480E238078032201023E480831E2
:101280000A30D2F723FE092101702188418061884C
:101290008180A188C180E1880181384941818181B3
:1012A000D2F72DFE10BD70B5040215000E00E01C33
:1012B000D2F797FF022809D0E01CD2F792FF03284B
:1012C00004D0E01CD2F78DFF04280CD12A48E21C80
:1012D000511D06232730D2F7F9FD142101704680F5
:1012E0008580D2F70CFE70BD10B50402E01CD2F769
:1012F00078FF022811D0E01CD2F773FF03280CD02E
:10130000E01CD2F76EFF042807D0E01CD2F769FF7B
:1013100001001BA0FFF790F810BD2148E21CA11DA1
:101320000423D2F7D3FD0121017000214180D2F7BF
:10133000E6FD10BD7C334000641F0400E40B400058
:10134000020D00006170706D5F73656E645F6761B0
:10135000706D5F72657365745F636D640D0A000084
:10136000E40804002573206D6F72655F7376633A3D
:1013700025640D0A00000000040E0000FFFF0000BD
:1013800025732063616E27742070726F2E20637541
:1013900072207374617465203A25640D0A000000A0
:1013A000010C000070B5AC48022303220721D2F7DC
:1013B0008DFDAA4DA7240470E9784170D2F79FFDF6
:1013C0006C7170BDF8B5A448232303220721C01C0B
:1013D000D2F77CFDA14EA9210170F1780400871C91
:1013E000417000214180B57E001D1A2D00D31A25C1
:1013F000691C0170B17EA94201D1092100E00821D8
:10140000417096492A001B31801CF8F705FD388889
:10141000AD1C4019388092A0FFF70EF8002505E0BA
:101420006019017991A0FFF707F86D1C6088A84248
:10143000F6DC90A0FFF700F82000D2F760FD022054
:101440003071A9207071F8BDF8B5844C8A492279B1
:101450008AA0FEF7F1FF2079002507260300F8F7A0
:101460004AED09061F223A573A57596F71006D200D
:101470002C23032207214001D2F728FDA027077063
:10148000457003210571C1804572012506774577B6
:10149000457147618761D2F732FD2571677151E06F
:1014A000FFF790FF4EE06C48232303220721C01C66
:1014B000D2F70CFDAA2605000670E07875A16870C9
:1014C0000A2002006880281DF8F7A6FC2800D2F741
:1014D00016FD032019E0684971A02D39FEF7ACFF15
:1014E0002079052801D003282CD15B483A23032218
:1014F0000721801ED2F7EAFCA4260670E17841702D
:1015000045800571D2F7FBFC06202071667119E059
:10151000267117E0584962A01639FEF78DFF4E4834
:10152000022303220721401ED2F7D0FCA525057017
:10153000E1784170D2F7E3FC08202071657101E089
:1015400005202071217958A0FEF776FFF8BDF0B58F
:101550000D180C0089B0012620216846F8F784FC9C
:10156000694608780221084369460122087022E092
:1015700067783B00F8F7BEEC1D1C1010101010101F
:101580001010101C1C1C1C1C1C1C1C1C1C1C1C1CBF
:101590001010101010101C00FB087F079C46CB5C3D
:1015A00010007F0FB840034207D1034360460B543D
:1015B0002078641C0419AC42DAD3AC4200D0002677
:1015C000300009B0F0BDF8B50F000500FFF7BFFF10
:1015D000002807D0214E3079052805D0072803D0F0
:1015E0004320F8BD4A20F8BD1B48232303220721CE
:1015F000C01CD2F76BFCA9210170F1780400417086
:1016000000211C2D418005D82A003900201DF8F743
:1016100003FC658012A0FEF70FFF002505E06019AE
:10162000017912A0FEF708FF6D1C6088A842F6DC65
:1016300010A0FEF701FF2000D2F761FC04203071FA
:101640000020F8BD05490979072902D0002802D1F8
:1016500070470028FCD1F7E6A30D00007C33400062
:101660006164762064617461000000003A253032C4
:10167000780000000D0A0000320904002573206381
:101680007572206164765F73746174653A25780DB4
:101690000A00000009FF006052572D424C4500002F
:1016A00025730D0A00000000656E64206164765F9A
:1016B00073746174653A25780D0A0000F8B59E4D83
:1016C0009E49EA799EA0FEF7B7FEE87902283BD151
:1016D000A1483A2303220721D2F7F8FB0400A420F3
:1016E0002070A87900269D4F60700120A670E070E0
:1016F000022069462A0008703B680A329C209847FD
:10170000002802D096A0FEF797FE8B4A3B680C3269
:101710009D2069469847002802D091A0FEF78CFED4
:10172000AA89698997A0FEF787FE68890420E0806E
:10173000208126710A20E68120822000D2F7DFFB7B
:101740000320E871A4202872F8BD70B582480223F6
:1017500003220721801CD2F7B9FB774DA724047020
:10176000A9794170D2F7CBFB2C7270BD70B5724C69
:101770007249E27913318AA0FEF75EFEE079030038
:10178000F8F7B8EB060407070A0C1D1F00F0B3F8C2
:1017900017E0FFF793FF14E0042011E06E480223E6
:1017A00003220721401CD2F791FBA5250570A179E2
:1017B0004170D2F7A4FB0520E071257201E0022000
:1017C000E071E1797BA0FEF737FE70BDCEE730B562
:1017D0000400002003000EE0CD186D78012D05D027
:1017E000022D03D0082D09D0092D07D0CD5C5B1C3C
:1017F000EB181B061B0EA342EED330BD002007E002
:101800001D186D18AD78401C0006000E1570521C96
:10181000CD5C6D1E8542F3DCC85C5B1CC018030602
:101820001B0E0120E7E7F8B5070000200D000400BB
:10183000009033E02E197078012806D0022846D097
:1018400008282FD0092824D12CE05FA0FEF7F4FD52
:10185000B67860A03100FEF7EFFDF00702D05FA080
:10186000FEF7EAFDB00702D564A0FEF7E5FD7007BC
:1018700002D56AA0FEF7E0FD300702D56EA0FEF7A4
:10188000DBFDF00602D575A0FEF7D6FD48A0FEF7F9
:10189000D3FD285D641C00190406240EBC42C9D384
:1018A0000098F8BD0120009073A0FEF7C5FD00264A
:1018B00008E0A0194019817872A0FEF7BDFD761CE2
:1018C0003606360E285D401EB042F2DCDEE76EA022
:1018D000FEF7B2FD002609E0A0194019C278817810
:1018E0006BA0FEF7A9FDB61C3606360E285D401E1D
:1018F000B042F1DCCAE770B50F4C1049E2791439F7
:1019000066A0FEF799FDE079002813D16D2002232F
:10191000032207214001D2F7D9FAA1250021057041
:101920004170D2F7ECFA0120E071642025726081E9
:101930001420A08170BD00007C33400058090400D1
:1019400066756E632025732C7363616E5F737461BB
:1019500074653A25640D0A00A10D0000E40B4000F7
:101960006E6F7420666F756E643A4E5644535F54C2
:1019700041475F5343414E5F5744206572720D0AE1
:10198000000000007363616E5F696E74763A2564CF
:101990002C7363616E5F77643A25640D0A00000062
:1019A0002573207363616E5F73746174653A257883
:1019B0000D0A0000656E64207363616E5F7374616D
:1019C00074653A25780D0A0041445F54595045200A
:1019D0003A20000025303278200000007C2047416A
:1019E000505F4C455F4C494D5F444953434F56450A
:1019F0005241424C455F464C472000007C20474105
:101A0000505F4C455F47454E5F444953434F5645F1
:101A10005241424C455F464C472000007C204741E4
:101A2000505F42525F4544525F4E4F545F53555092
:101A3000504F5254454420007C204741505F534949
:101A40004D554C5F42525F4544525F4C455F434F9A
:101A50004E54524F4C4C4552200000007C204741D0
:101A6000505F53494D554C5F42525F4544525F4C65
:101A7000455F484F535420004144565F4E414D4509
:101A8000203A20002563000055554944203A2000A3
:101A900025303278253032782020000066756E635C
:101AA0002025732C7363616E5F73746174653A25CE
:101AB000640D0A0013B5F84807226946F8F7ACF937
:101AC0001CBD10B5F4490722F8F7A6F910BDF3B50F
:101AD000F24DF349EA7B85B0F2A0FEF7ADFC0020A1
:101AE0000490E87B022869D1F4483A2303220721B5
:101AF000D2F7ECF9A42604000670A87B6946F04FE3
:101B000060700020A0700120E0700A20E0821420A4
:101B10002083022008732A003B6812329E2003A90A
:101B20009847002802D0E7A0FEF786FCDB4A3B6816
:101B300014329F2003A99847002802D0EAA0FEF79C
:101B40007BFCD64A3B681632A02003A998470028A0
:101B500002D0EEA0FEF770FCEB8AAA8A698AF5A093
:101B6000FEF76AFC688A6B46E081688A2082A88A50
:101B70006082E88AA0827D20C000A0806846817EC5
:101B8000382001556846427E017EC07D07C3684605
:101B9000837D427D017DF3A0FEF74EFC20000622EE
:101BA000323005A9F8F738F96889E080A8892081E2
:101BB0002000D2F7A4F90320E8732E74049807B02C
:101BC000F0BD70B5B649F3A01631FEF735FCB34C45
:101BD0000025E07B002802D00225280070BDB74810
:101BE000022303220721401CD2F770F9A5260670B4
:101BF000A17B4170D2F783F90520E0736671ECE7B1
:101C00001CB5A64CA649E27B2C31E5A0FEF714FCDE
:101C1000E07B0300F8F76EE90604070711151315BA
:101C200000F06CFA0DE09C4907226846F8F7F4F8DA
:101C300001990098FFF74BFF03E0042000E0022029
:101C4000E073E17BDBA0FEF7F7FB1CBDD8E7FFB537
:101C5000060004021500E01C81B0D2F7C2FA9049D8
:101C600002003F31D8A0FEF7E7FB029A3100DBA06B
:101C7000FEF7E2FB00200090E01CD2F7B2FA042845
:101C80000BD002200090E01CD2F7ABFA0100DAA0E2
:101C9000FEF7D2FB009805B0F0BD27004B373800A7
:101CA00003F09BF9010028000A300304DA481B0CFA
:101CB000E21CD2F70BF90400067002982A00A080FB
:101CC0002000E58004990A30F8F7A6F8380003F000
:101CD00084F90100D1A0FEF7AFFB2900D3A0FEF7E5
:101CE000ABFB002605E00498815DD4A0FEF7A4FBC1
:101CF000761CAE42F7DB7BA0FEF79EFB2000D2F7FE
:101D0000FEF8C7E7FFB505000402E01C81B0D2F77A
:101D100068FA634902005B31CAA0FEF78DFB039BA2
:101D2000029A2900CDA0FEF787FB0026E01CD2F71F
:101D300058FA00281ED027004B37380003F04DF921
:101D40000100B548E21C0823801CD2F7BFF804004C
:101D5000380003F042F90100B0A0FEF76DFB2570DA
:101D6000029860800398A0800498E0802000D2F759
:101D7000C6F807E00226E01CD2F733FA0100C2A041
:101D8000FEF75AFB300086E7F8B50E004449040020
:101D900017007A317FA0FEF74FFB20020025C01C00
:101DA000D2F71FFA042809D002250320D2F719FA26
:101DB000010091A0FEF740FB2800F8BD4B2003F086
:101DC0000CF90100944818230322801ED2F77EF8F4
:101DD0000400867132003900C01DF8F71DF800209C
:101DE00060700120A0702000D2F789F8E4E770B598
:101DF0000D002B4906009D3166A0FEF71DFB300249
:101E00000024C01CD2F7EDF9042809D002240320D5
:101E1000D2F7E7F9010078A0FEF70EFB200070BDB5
:101E20004B2003F0DAF801007B4818230322801EC0
:101E3000D2F74CF80021858041708170D2F75FF8AD
:101E4000ECE770B50D0016490600C23151A0FEF74F
:101E5000F3FA30020024C01CD2F7C3F9042809D0D9
:101E600002240320D2F7BDF9010063A0FEF7E4FAD3
:101E7000200070BD4B2003F0B0F801006648182325
:101E80000322801ED2F722F80121858041700021B3
:101E90008170D2F734F8EBE7522040007C334000E9
:101EA0008F09040066756E632025732C696E697452
:101EB0005F73746174653A25640D0A00A10D00001A
:101EC000E40B40006E6F7420666F756E643A4E5678
:101ED00044535F5441475F434F4E4E5F494E545603
:101EE000206572720D0A00006E6F7420666F756E49
:101EF000643A4E5644535F5441475F434F4E4E5FE2
:101F00004C4154206572720D0A0000006E6F7420FF
:101F1000666F756E643A4E5644535F5441475F4353
:101F20004F4E4E5F5355505F544F206572720D0AED
:101F300000000000636F6E6E5F696E74763A256410
:101F40002C636F6E6E5F6C6174656E63793A2564A5
:101F50002C636F6E6E5F73757065725F746F3A2578
:101F6000640D0A00636F6E20616464726573733A76
:101F700020253032782D253032782D253032782DBD
:101F8000253032782D253032782D253032780D0AE3
:101F90000000000066756E632025730D0A000000C6
:101FA000257320696E69745F73746174653A25786E
:101FB0000D0A0000656E6420696E69745F73746158
:101FC00074653A25780D0A0066756E632025732CBA
:101FD0007374617465203D2025782C00636F6E69F1
:101FE00064783A25642C68616E646C65203D20300D
:101FF00078253034780D0A006B655F737461746501
:102000005F676574285441534B5F41505029203D10
:102010002025780D0A000000044B000064657374ED
:10202000203D203078253034780D0A0064617461D9
:10203000206C656E3A25642C000000002530327853
:102040002000000066756E632025730D0A2C7374E2
:10205000617465203D2025782C000000636F6E6957
:1020600064783A25642C68616E646C65203D20308C
:1020700078253034782C6E74665F636667203D2067
:10208000307825780D0A00006B655F7374617465A4
:102090005F676574285441534B5F4150504329207A
:1020A0003D2025780D0A000070B50D000600264978
:1020B0002648FEF7C1F930020024C01CD2F791F87F
:1020C00004280AD002240320D2F78BF801001F480D
:1020D0006430FEF7B1F9200070BD4B2002F07DFFA7
:1020E00001001B4818230322D1F7F0FE022185804E
:1020F000417000218170D1F702FFECE770B5154CFB
:102100001149E27BFF3914A0FEF796F9E07B002825
:1021100018D16D200223032207214001D1F7D6FEFA
:10212000A225002605704670D1F7E9FE0120E07374
:102130000C2025746082C820A682E0826420608121
:102140001420A08170BD00007D0A0400941F0300CC
:10215000024B00007C33400066756E632025732CB3
:10216000696E69745F73746174653A25640D0A0061
:102170002E480021017064214170704710B52C4831
:10218000202303220721D1F7A1FE1B21017000218A
:10219000242241704280032282800122C180027386
:1021A0004273D1F7ACFE10BD10B504001F48047097
:1021B000242002F012FF01002202092004238002E1
:1021C000D21CD1F783FE002104704170322181704E
:1021D000D1F795FE10BD10B50400242002F0FDFEDD
:1021E0000100144802230322D1F770FE0021017080
:1021F0004470D1F784FE10BD10B54A780E490FA087
:10220000FEF71AF9002010BD0B4910B524310FA0BC
:10221000FEF712F9002010BD074910B53B310BA0A5
:10222000FEF70AF9002010BD002070475920400039
:102230001B0D000002240000D00A040025732C6E40
:1022400074665F6366673A25640D0A0025730D0A9C
:1022500000000000F8B50E000978180000242500E1
:102260000B00F7F748EE0906091215181B0C1E0F94
:102270002000102421A516E00A2425A513E0082437
:1022800026A510E0072428A50DE00A2428A50AE0C9
:1022900005242AA507E005242AA504E005242BA58A
:1022A00001E006242BA501002C48A31CD1F70EFE4B
:1022B00007003078002C38707C7004D02200290090
:1022C000B81CF7F7A9FD3800D1F719FE0020F8BDBA
:1022D000704710B522480E2303220721D1F7F6FDDF
:1022E0001B21017000211422417042800322828050
:1022F0001C4AC1808281D1F702FE10BD5269766905
:102300006572615761766573205341530000000088
:1023100052572D424C452D312E300000123456FFBD
:10232000FE9ABCDE00000000025E044000000300D4
:10233000312E302E302E302D4C450000312E302ED7
:1023400030000000362E312E32000000362E332EA3
:1023500030000000FFEEDDCCBBAA0000031400003B
:102360001B0D0000FF01000008B501206946087040
:10237000C04A932001F0F9FDBE490022002801D097
:102380000A7004E00878012801D00028F8D14A70CA
:102390008A70CA7008BDB7480078704770B5B54DEF
:1023A0000024287801280BD12A00012193202C70C9
:1023B00001F02AFE982001F0F7FD962001F0F4FDCF
:1023C0002C706C70AC7070BD10B50400AA49ABA045
:1023D000FEF732F82102AB48022303220831D1F77D
:1023E00075FD0C21017005214170D1F788FD10BDEC
:1023F0000102A448CA1C10B5082308380831D1F7D7
:1024000065FD0A2101700521C17002214170102172
:10241000017100218170C171032141718171D1F776
:102420006EFD10BD70B518000D0001009548222307
:102430000322801F86B0D1F749FD29788E4A040017
:1024400088002C3A125890A0FDF7F6FF2978052055
:1024500001250B00F7F74EED08056A6A6A51396AE3
:10246000166A84494D70257065709049207100206E
:1024700048771021A0706171E07020720320E07134
:10248000A07153E0072065702070F7F7B3FC0025BA
:102490006082F7F7AFFC6619B070F7F7ABFC6D1C04
:1024A0002D062D0E082D3075F3D30825F7F7A2FC65
:1024B00061196D1C2D062D0E102D8870F6D3A21CEF
:1024C0001C21982001F0A0FD30E006216A46117021
:1024D00076496570207010220D31A01CF7F79CFC26
:1024E0007348220003681232012069469847E07D54
:1024F000800900D00120207618E014216846F7F703
:10250000B3FC68460BF016FE68460CF04FFA060066
:102510000420657020701021A01CF7F7A5FC300A7C
:10252000A670E070300C2071300E60712000D1F781
:10253000E6FC002006B070BD70B50C0009784E4A6C
:102540001D0088002C3A12585AA0FDF775FF21781B
:10255000280A891E0B00F7F7CEEC070531342B341F
:102560003428340043480021C170017101210170F9
:1025700057A0FDF761FF3F4A0121932001F044FD80
:1025800001210020E9F740F802000721962001F020
:102590003BFD46482038807803F0D2FF394832228C
:1025A0000321E830D1F7C9FE0BE0FEF751FE08E049
:1025B000A21C17219B2001F027FD02E00020FFF75D
:1025C00003FF002070BD70B51C000D0088B045A051
:1025D000FDF732FF2748012686701C2069460870E7
:1025E0002848122303222100801ED1F76FFC04002B
:1025F00000202070982001AA694601F0B6FC00284E
:1026000014D169462888898A88420FD105A90822F1
:102610000231A81CF7F733FC002807D110202670E0
:1026200002006074601C01A9F7F7F6FB2000D1F7E7
:1026300066FC002008B070BD10B509782EA0FDF72B
:10264000FBFE002010BD0C49020010B51A3130A06D
:10265000FDF7F2FE002010BD10B51C0A0B780649EC
:10266000020033312EA0FDF7E7FE2000FFF7C0FE89
:10267000002010BD5B204000600B040025730D0A94
:10268000000000001A0E0000676170635F626F6EE9
:10269000645F7265715F696E6420726571756573E0
:1026A000743A2564203A25730D0A00009C334000DB
:1026B000E40B4000676170635F626F6E645F696E18
:1026C0006420696E666F3A25642C25730D0A00003C
:1026D00050414952494E475F535543434545440D88
:1026E0000A000000656E63727970745F7265715FD5
:1026F000696E640D0A000000656E63727970745F24
:10270000696E6420617574683A25640D0A000000E2
:102710000D0A2573206D73676964203A25237800BC
:102720000D0A2573206D73676964203A2523782C80
:10273000617574683A252378000000000021F84A8A
:1027400033234B43D35C834204D133204143881865
:10275000401C7047491C3729F2DBF2487047F24AA7
:10276000002133234B43D35C834204D133204143C4
:102770008818401C7047491C1E29F2DBE948704745
:10278000FEB515000C000179E84E17E00768CA0095
:10279000083ABA1884CA00926A4601971288A2427F
:1027A00001D0B24207D1019E032229002000B04788
:1027B0000006000EFEBD491E0906090E0029E5D1DE
:1027C0000020FEBD10B50C00D949DAA0FDF734FE9B
:1027D000DA480179012902D16178002904D0C17950
:1027E0000222012906D008E021780222C170A256F7
:1027F000D3A00AE06178012903D0C17B012907D069
:102800000FE021788171C271D4A0FDF715FE08E0B8
:102810006178022905D121788173C273D8A0FDF7B0
:102820000BFE002010BD10B58A780C00C049D9A05D
:102830002231FDF701FEC1480179072902D16178F3
:10284000002904D0C2790521042A05D007E0082117
:102850000171FEF7F9FD10E06278012A03D0C27B16
:10286000042A04D009E0C171FEF780FF05E0627818
:10287000022A02D1C173FFF7C3F9002010BD38B599
:1028800010000C00D1F7ADFCA088A9490090638826
:1028900022884431C3A0FDF7CFFD002038BDFEB52E
:1028A0000C001020694608722078150AFFF746FFD1
:1028B000617800902A0001919D4923786331C5A079
:1028C000FDF7BAFD20780025A22877D017DC9B4FB2
:1028D00039002D3120371B2800915AD008DC012601
:1028E000012816D01A24032869D01A2858D158E094
:1028F000282872D0A0286FD0A128F7D1A9E0A43849
:102900008E4E0300F7F7F6EA07B3C6D7D7D4ADADBE
:10291000D70060780028E9D1B94834230322072181
:10292000D1F7D4FA0400032020700F206070FB2040
:10293000E6766084B348221DA084B34801A9E084F0
:10294000B248A576036801209847002804D0B04912
:102950000622201DF7F760FA607A800902D0A07E77
:102960003043A076FFF717FD002806D0009A9A2082
:1029700002A901F0FAFA002806D0200010210A303E
:10298000F7F772FA200057E01022200000990A3071
:102990004FE0FEF747FC002802D10120FEF752FE6F
:1029A00089E0B87F01280BD0954811230322072125
:1029B0001F30D1F78BFA0400BD7735E04DE020E001
:1029C0000220B8778E480123032207211530D1F762
:1029D0007DFA047030E000E043E00A009A2002A98A
:1029E00001F0C3FA002804D0009A10219A2001F0C7
:1029F0000BFB01210320BD77D1F7BEFBFEF712FCD4
:102A000059E0FFF7C8FC002819D0009A9A2002A9C3
:102A100001F0ABFA00284ED1794811230322072197
:102A20001F30D1F753FA040028202070009910229B
:102A3000601CF7F7F1F9A5E7D1F761FA3BE07048C0
:102A40000123032207211530D1F740FA0470BE7725
:102A5000F2E76078002828D02DE06078002816D0B2
:102A600029E06078002826D1FEF7EEFC23E06078AC
:102A7000002820D13079062801D1FEF7E5FCF07955
:102A8000032801D1FEF772FEF07B032813D1FFF774
:102A9000B7F810E0607800280DD13079082801D10E
:102AA000FEF7D2FCF079052805D1FEF75FFE02E0C3
:102AB0003571F571F5730020FEBDF8B517000A7881
:102AC0000D001B491E00783152A0FDF7B5FC297896
:102AD0005448002905D00024012915D002291DD110
:102AE000ACE01C233A003100D1F7F0F9040028785B
:102AF0002070201D0BF089FA01006080221D4AA081
:102B0000FDF79AFC200007E00A233A003100D1F7D4
:102B1000DDF9297801704480D1F7F1F90020F8BD82
:102B2000E80B040061204000DD160400FFFF0000F8
:102B3000D71C040025730D0A000000007C33400000
:102B40006164765F616374765F6964783A25642CAA
:102B500074785F7077723A25640D0A007363616E52
:102B60005F616374765F6964783A25642C7363618E
:102B70006E5F73746174653A25640D0A000000008D
:102B8000696E69745F616374765F6964783A25641D
:102B90000D0A000025732C726561736F6E3A2578FB
:102BA0000D0A00002573207072665F7461736B5F9D
:102BB00069643A25782C7072665F7461736B5F6E1E
:102BC000623A25642C73746172745F68646C3A2590
:102BD000640D0A00257320636F6E6964783A25647A
:102BE0002C6F7065726174696F6E3A307825782C3D
:102BF00025732C7374617475733A25780D0A00007F
:102C0000040D0000480800000F020000E40B400023
:102C10006800400025732C7265713A307825780D74
:102C20000A0000000B0E00006C656E6774683A25A0
:102C3000642C6E616D653A25730D0A000A233A0013
:102C40003100D1F743F929780170062141800A212A
:102C50008180FF212D31C48001815DE710B518000E
:102C60000C000100DC480223D1F730F94821417003
:102C700021780170D1F743F9002010BD70B5180A12
:102C8000D64D130086B00C000200A870D449D5A020
:102C9000FDF7D2FBA878FF2876D0208828802188ED
:102CA000D7A0FDF7C9FB60880DF03CECD84B0022A3
:102CB0000DF04EEC02000B00D6A0FDF7BDFBA18885
:102CC000DAA0FDF7B9FBE1880A204143DCA0FDF75B
:102CD000B3FB617ADEA0FDF7AFFBE3A0FDF7ACFB31
:102CE0000026A019817AE4A0FDF7A6FB761C360623
:102CF000360E062EF5D3E2A0FDF79EFBA878617A8A
:102D0000C200101A401940308171A8780622C10013
:102D1000081A401921000A314030F7F77DF8217C6C
:102D2000AA78AE483F301154207C002801D0D5A1AC
:102D300000E0D6A1D7A0FDF77FFBA87834230102DD
:102D4000A548CA1C0B380831D1F7C0F80600FFF7B8
:102D500022FB002801D0052100E000212820815518
:102D60003000D1F7CCF8207C002802D0A878FFF7FB
:102D70002BFBA878FFF718FAA87802210002C01CE4
:102D8000D1F7FAF9AA7800E012E0C5A168460BF085
:102D90008BFB0106090E6846FBF760FFC549002062
:102DA000087048708870FEF74DFC002006B070BDBA
:102DB0000120F8E710B5894C8949180AA070BE486F
:102DC0002031FDF739FBA078FF280FD00102E12068
:102DD0000623032200010831D1F778F801210170A0
:102DE000B64941808180D1F78AF802E00120FEF7E0
:102DF00029FC002010BD70B50C0079491D0A423134
:102E0000AFA0FDF719FB2900B6A0FDF715FB208840
:102E10000DF088EB7E4B00220DF09AEB02000B00C8
:102E2000B4A0FDF709FB6188B9A0FDF705FBA188F7
:102E30000A204143BBA0FDF7FFFA002070BD38B562
:102E40000C001D0A00936649130002006131B9A00D
:102E5000FDF7F2FA2900C2A0FDF7EEFAA188C3A09F
:102E6000FDF7EAFAE188C7A0FDF7E6FA2188CAA0D3
:102E7000FDF7E2FA6188CEA0FDF7DEFA002038BD4A
:102E80007CB508780C00150AFFF769FC61780090A2
:102E900089480191524923782A007E31A030FDF7FC
:102EA000CBFA20780A281AD006DC01284BD0032858
:102EB00029D004284AD12DE00B281AD00C2802D0A2
:102EC000142843D134E06078002806D0BDA0FDF777
:102ED000B3FA2800FEF7BCF938E0C1A030E0607812
:102EE000002804D02800FEF7B3F9C4A028E0C8A049
:102EF00026E06078002804D02800FEF7A9F9C9A0D0
:102F00001EE0CFA01CE06178002901D0D3A013E01F
:102F1000DDA015E06178002903D0E3A0FDF78CFA6D
:102F200002E0ECA0FDF788FA2800FFF761FA0DE057
:102F30006178002903D0EFA0FDF77EFA06E0F8A043
:102F4000FDF77AFA02E00120FEF77CFB00207CBD51
:102F500010B5140A8A78224986B09331F7A0FDF79C
:102F60006BFA20020021C01CD1F706F90120FEF700
:102F700069FB2200F6A168460BF096FA0106090EDD
:102F80006846FBF76BFEF7480178A14201D1FF21AB
:102F90000170002006B010BD7CB51500020A0024A7
:102FA000242A13D006DC0C2A11D00E2A10D0142AA1
:102FB00006D1F1E1472A0CD0482A0BD04A2A0AD080
:102FC000074900932B00AF310190CDE1E8E1CEE15C
:102FD000CFE1D9E1DCE1E7E10D0E00007C334000F8
:102FE000711D0400257320636F6E6964783A25644F
:102FF0002C646573745F69643A307825780D0A0033
:10300000636F6E68646C3A2564200D0A000000004E
:103010000000F43F636F6E5F696E74657276616C79
:103020003A252E3266200D0A00000000636F6E5FA5
:103030006C6174656E63793A2564200D0A000000A6
:103040007375705F746F3A2564200D0A00000000EC
:10305000706565725F616464725F747970653A254A
:1030600064200D0A00000000706565725F61646491
:10307000723A3078000000002530327800000000FD
:103080000D0A0000536C6176650000004D61737499
:1030900065720000726F6C653A2573200D0A00009E
:1030A0000D0A2B47415454535441543D25642C334D
:1030B0000D0A00005B204000342B0300FFFF0000DE
:1030C0006170706320257320646573745F69643A6E
:1030D000307825782C7372635F69643A307825788C
:1030E0000D0A0000636F6E6964783A2523780D0A33
:1030F00000000000636F6E5F696E74657276616CCC
:10310000203D20252E3266206D730D0A0000000040
:10311000636F6E5F6C6174656E6379203D2025641A
:103120000D0A00007375705F746F203D2025640DDB
:103130000A0000002573206D736769643A307825B2
:10314000782C646573745F69643A307825782C73E1
:1031500072635F69643A307825780D0A00000000D8
:10316000636F6E6964783A25782C0000316D617860
:103170005F72785F6F6374657473203D2025640D02
:103180000A000000316D61785F72785F74696D6567
:10319000203D2025640D0A00316D61785F74785FF1
:1031A0006F6374657473203D2025640D0A00000070
:1031B000316D61785F74785F74696D65203D20259D
:1031C000640D0A00676170632073656375726974CA
:1031D0007920726571206661696C20210D0A0000FA
:1031E00067617063207365637572697479207265B5
:1031F00071206F6B20210D0A000000006761706371
:1032000020626F6E64206661696C20210D0A0000E7
:103210006761706320626F6E64206F6B20210D0AFE
:10322000000000006761706320656E6372797074DE
:10323000207374617274206661696C20210D0A002C
:103240006761706320656E63727970742073746156
:103250007274206F6B20210D0A000000474150431B
:103260005F4745545F504545525F56455253494F5D
:103270004E206661696C2021207374617475733A05
:10328000307825780D0A0000474150435F47455488
:103290005F504545525F56455253494F4E206F6B24
:1032A00020210D0A00000000474150435F4745546C
:1032B0005F504545525F464541545552455320663F
:1032C00061696C2021207374617475733A307825BC
:1032D000780D0A00474150435F4745545F504545CC
:1032E000525F4645415455524553206F6B20210D86
:1032F0000A000000474150435F5345545F4C455F0F
:10330000504B545F53495A45206661696C20212017
:103310007374617475733A307825780D0A00000073
:10332000474150435F5345545F4C455F504B545F9A
:1033300053495A45206F6B20210D0A0025732C72CA
:103340006561736F6E3A307825780D0A00000000D1
:103350000D0A2B47415454535441543D25642C309D
:103360000D0A0000A123400096A0FDF765F820009B
:103370007CBDA34A8218092AF9D80A000100A14895
:10338000FFF7FEF90400F2E70A0001009E48F7E7A4
:103390000A0001009D48F3E70A0001009C48EFE79E
:1033A0000A0001009B48EBE70A0001009A48E7E7A2
:1033B0009A4810B5807F012802D0022804D008E086
:1033C000964808220D3002E0944808221530F6F79E
:1033D00023FD002010BD00207047F8B51E0A0093A1
:1033E00013000C0002008E498EA0FDF725F821780D
:1033F00098A0FDF721F8002505E0401B215C9BA06B
:10340000FDF71AF86D1C2078A842F6DC2200022194
:10341000300000F0D2FA0020F8BD70B51C0010009A
:103420000D00D0F7DEFE210A92A0FDF705F86988AD
:1034300097A0FDF701F8002405E0281981798BA0F9
:10344000FCF7FAFF641C6888A042F6DC99A0FCF740
:10345000F3FF002070BD10B510000C00D0F7C1FEC6
:103460006188A01DFBF7FAFB002010BD38B50C00E9
:103470001D0A00936A49130002008F481A31FCF7B5
:10348000DBFF8D4829002C30FCF7D6FF62882188AD
:103490008AA0FCF7D1FF002038BD70B50D0060494F
:1034A0008D483C31FCF7C8FFEA7929788BA0FCF7FE
:1034B000C3FF91A0FCF7C0FF00242819417890A019
:1034C000FCF7BAFF641C062CF7DB7AA0FCF7B4FF0C
:1034D000002070BD70B51D0016000C001000D0F764
:1034E00080FE4F492D0A2B0032005A3186A0FCF78E
:1034F000A3FF6388627821788BA0FCF79DFF20787A
:103500000D2801D00C2805D16088A52802D092A0F2
:10351000FCF792FF207816280BD128020421C01C4A
:10352000D0F72AFE96A0FCF787FF0121280003F0C0
:10353000A3FC20780C2809D16088AA2806D197A07E
:10354000FCF77AFF0021280003F096FC002070BDF4
:10355000324810B520388078FEF736FF002010BDC5
:1035600010B51C0A0122D202FB212000FDF79BFEB0
:103570002000FDF7B9FE002010BD70B50AF023FD54
:103580008A4C05000100227889A0FCF755FF022D26
:1035900004D229001120FBF7F1FB11E0022D0FD11D
:1035A00021781120FBF7EAFB21780120414085A01A
:1035B0002170FCF741FF864814220321D0F7BDFE9D
:1035C000002070BD25732C7372635F7461736B5F31
