:020000040002F8
:10DB000018F09FE518F09FE518F09FE518F09FE5E5
:10DB100018F09FE518F09FE518F09FE518F09FE5D5
:10DB200084DB020040DB020044DB020048DB020031
:10DB30004CDB020054DB020050DB020058DB020029
:10DB4000860000EA870000EA880000EA890000EA0F
:10DB5000B20000EA890000EAA80000EAD4234000ED
:10DB6000F87B00000CF54000200000001CFA40008B
:10DB7000F00200002CF54000F00400000CFD400015
:10DB8000F0020000DF00A0E300F021E130001FE51B
:10DB900030101FE5003081E00040A0E103D0A0E19B
:10DBA00090219FE5030054E104208434FCFFFF3AF8
:10DBB000D700A0E300F021E15C001FE55C101FE549
:10DBC000003081E00040A0E103D0A0E164219FE5A6
:10DBD000030054E104208434FCFFFF3ADB00A0E39F
:10DBE00000F021E188001FE588101FE5003081E08A
:10DBF0000040A0E103D0A0E138219FE5030054E1FB
:10DC000004208434FCFFFF3AD200A0E300F021E1BD
:10DC1000AC001FE5AC101FE5003081E00040A0E142
:10DC200003D0A0E110219FE5030054E104208434D7
:10DC3000FCFFFF3AD100A0E300F021E1C8001FE59E
:10DC4000C8101FE5003081E00040A0E103D0A0E152
:10DC5000E8209FE5030054E104208434FCFFFF3AF0
:10DC60000080A0E30090A0E300A0A0E300B0A0E348
:10DC700000C0A0E3D300A0E300F021E110011FE504
:10DC800010111FE5003081E00040A0E103D0A0E1C9
:10DC9000AC209FE5030054E104208434FCFFFF3AEC
:10DCA0000E0000EB170000EB0000A0E30010A0E363
:10DCB0000020A0E30030A0E30040A0E30050A0E378
:10DCC0000060A0E30070A0E30080A0E30090A0E368
:10DCD00000A0A0E300B0A0E300C0A0E3530000EA6E
:10DCE00060009FE560109FE560209FE50130A0E1A6
:10DCF000023083E0030051E1044090340440813459
:10DD0000FBFFFF3A1EFF2FE144009FE544109FE513
:10DD1000003081E00040A0E10020A0E3030054E1D6
:10DD200004208434FCFFFF3A1EFF2FE1FEFFFFEAD0
:10DD300024009FE51EFF2FE1AAAAAAAACCCCCCCC36
:10DD4000DDDDDDDDBBBBBBBBC42F0400002040001C
:10DD5000D4030000D4234000F87B0000CC9E400098
:10DD600004F01FE59D21000004F01FE59F21000045
:10DD700004F01FE5A121000004F01FE5A32100002D
:10DD800004F01FE5A52100000000000000000000D5
:10DD90000000000000000000000000000000000083
:10DDA0000000000000000000000000000000000073
:10DDB0000000000000000000000000000000000063
:10DDC0000000000000000000000000000000000053
:10DDD0000000000000000000000000000000000043
:10DDE0000000000000000000000000000000000033
:10DDF0000000000000000000000000000000000023
:10DE00000F502DE9150900FB0F50BDE804F05EE24C
:10DE10000000000000000000000000000000000002
:10DE20000F502DE9AC080FFA0F50BDE804F05EE288
:10DE3000000000EB5E0000EB2C008FE2000C90E88D
:10DE400000A08AE000B08BE001704AE20B005AE1CA
:10DE50000000001A560000EB0F00BAE818E04FE28D
:10DE6000010013E303F0471013FF2FE1FC4F010003
:10DE70002C500100102052E27800B0287800A12830
:10DE8000FBFFFF8A822EB0E13000B0283000A128CD
:10DE900000409045004081451EFF2FE10030B0E377
:10DEA0000040B0E30050B0E30060B0E3102052E265
:10DEB0007800A128FCFFFF8A822EB0E13000A12863
:10DEC000003081451EFF2FE16E0051E3CD43000A73
:10DED000700051E30242000A660051E3164A000A4C
:10DEE000650051E3144A000A670051E3124A000A30
:10DEF000610051E3114A000A003090E52334B0E19B
:10DF000080108123690051E38B41000A640051E3D2
:10DF10008941000A750051E38741000A6F0051E30F
:10DF2000D141000A780051E32449000AE90051E395
:10DF3000EB43000AE40051E3E943000AF50051E332
:10DF4000E743000AEF0051E31E49000AF80051E3DD
:10DF50001E49000A003090E5A333B0E18010812310
:10DF6000630051E3C243000A730051E31949000AF8
:10DF7000E30051E3CC43000AF30051E31749000AE0
:10DF80000000B0E31EFF2FE11FB50098019910F0CB
:10DF900088FE11F0F6EC04000020002112F04CEA9B
:10DFA000401C60600020002112F06AEAE0601FBDA2
:10DFB00010B510BD594600EB0210A0E1F1FFFFFAC9
:10DFC0001CC09FE50FC08CE001001CE30DE08F1228
:10DFD0000FE0A0011CFF2FE101C08FE21CFF2FE129
:10DFE00011F094FD2D00000003002DE9EFFFFFFA72
:10DFF0000300BDE8DF4600FA00F072F81148C1697D
:10E00000090909010831C16100F071FC0E4800F0F6
:10E01000C9FE0EA000F010FF13A216A118A000F078
:10E020000BFF1B4800680104090C1AA000F004FF54
:10E030001C4800684005410F1BA000F0FDFE05F0E4
:10E040009CFFFCE70020800040420F00424B33362B
:10E05000333320496E697469616C2046696E697357
:10E0600068210D0A0000000030303A35363A313070
:10E07000000000004D61792032382032303231000A
:10E08000404025732025732121210D0A0000000046
:10E09000406E8000434849502049443A25780D0A93
:10E0A000000000000008800072657365745F72658F
:10E0B00061736F6E3A25780D0A00000001B5009873
:10E0C000411E0091FBD208BD11484168090A0902AE
:10E0D0005A3141604168090A0902A531416070471F
:10E0E0000B4800B58168090E09068160FFF7ECFF57
:10E0F0000120C005016882139143016005494A6807
:10E1000004239A434A60C16882119143C16000BDF3
:10E11000000C8000000880007047020010B501204C
:10E12000FE4B1C56944204DA401C0006000E0C28DC
:10E13000F7D91B56934206D0002904D1012802D9F1
:10E14000401E0006000E10BD00207047412149040A
:10E15000086B0722104308637047400876380006B2
:10E16000001670470068704701607047EC494A6BC1
:10E1700053005B08C20713434B63EA48416B4900F5
:10E1800049081143416370477F2800D97F2001036C
:10E19000E5480143E548C160C068E549C86070478B
:10E1A00070B5E24CA06F01256D042843A067A06FF5
:10E1B000DF4E4036B063022000F0B6FCA06FA843EB
:10E1C000A067A06FB06370BD70B5D84C216B012003
:10E1D000C00381432163216BD54D2963216B01432A
:10E1E0002163206B2863206BD24908432063206B96
:10E1F0000121890308432063206B2863CE482863EC
:10E200000A2000F091FCCD482063286370BDF8B56A
:10E21000C74DC0352868800880002860286808211C
:10E2200008432860C24C80342069C9060843206135
:10E23000206949000843206121690120400481438D
:10E2400021610A2000F070FC2069C009C001206132
:10E2500020690221084320610A2000F065FC606902
:10E2600001210903084360610A2000F05DFC606938
:10E2700001214903084360610A2000F055FC6069F0
:10E280000121C902084360610A2000F04DFCA74E3D
:10E29000F16840208143F160F068A54FF8600A20E2
:10E2A00000F042FCF06880210843F060F068F860FC
:10E2B0000A2000F039FC606901210904084360610B
:10E2C000322000F031FC9A4840308068C000C10C18
:10E2D0007D208002FBF764FDC005C00D01000090A9
:10E2E00097A000F0A9FD28689B490840286029688C
:10E2F0000098000201432960322000F015FC61699A
:10E300000120000481436161F16880208143F16054
:10E31000F068F8600A2000F007FCF068402108432C
:10E32000F060F068F86061690120C00281436161BA
:10E33000616980008143616160690121090388434B
:10E340006061206949010843206128680121084370
:10E35000286029680820814329602169C00681431B
:10E3600021612069400040082061F8BD70B57B48FC
:10E370006F4D28606D4C2060794868606060794816
:10E38000A860A0607848E860E06078482861206173
:10E390007748686160617748A861A0617648E86164
:10E3A000E06176482862206275486862606275485C
:10E3B000A862A0627448E862E0627448286320633F
:10E3C0007348686360637348A863A0637248E86336
:10E3D000E063574E71484036306320677048706381
:10E3E00060677048B063A0670021F163E16750483F
:10E3F0006D4A803002604B22520642600F22D206E4
:10E4000082608205C260694A02610122520542614E
:10E41000674A8261674AC261674A0262674A42622A
:10E42000674A82628122D200C262664A4263C21394
:10E430008263C1633E4B6448C0331860180041607A
:10E440008160C160016141618161C16101624162BC
:10E450002520C00398625D48D8625D4818631800A3
:10E4600041635C4898631800C1635B481104016014
:10E470005A4941605A4981605A49C1605A4901610B
:10E480005A4941615A4981615A49C1615A490162F7
:10E490005A4941625A4981625A49C1625A490163E3
:10E4A0005A4941635A4981634916C1635948016811
:10E4B000114301608168914381607F21C943C1603C
:10E4C000FFF7A5FEFFF76CFE606A0121890688430D
:10E4D0006062606A6862A06F49010843A067A06F2C
:10E4E000B063FFF771FE322000F01EFB3520FFF70E
:10E4F0004BFE70BD30B50122D205116B10231943BC
:10E5000011634549202508230724002803D001284A
:10E5100002D0022882E0D9E0ACE000004407040009
:10E520004000820040088200620C0060D42340005A
:10E53000006E8000000088130410881304D0881334
:10E5400076616C75655F6B63616C5F726573756C2A
:10E55000743D25780D0A0000FF00FEFF3F32B0C475
:10E5600000C2958200A0422F625C0360CFAA56FFD2
:10E570001F50204600CCA785C03F02AA2FC0B00F75
:10E580004C2280706FF8039C233FD90F0810008045
:10E5900023BF42CC5093300078E92631C5DD9C99E9
:10E5A000C00185EA80010180D6BE898E82030A00FF
:10E5B0000205201000C9080010100101004E103C97
:10E5C0003038100E46C42C081100011048103436A3
:10E5D000801CFF0140D90000006F80000204050785
:10E5E0000A0C0F12161A1E22262B30353A40454BC4
:10E5F00051575D636970767C83898F969CA2A8AE23
:10E60000B4BABFC5CACFD4D9DDE1E5E9EDF0F3F581
:10E61000F8FAFBFD40088000400A800029D1342030
:10E6200010630868800A8002403008604868800AE9
:10E630008002403048608868800A800240308860EC
:10E64000C868800A80024030C8600869800A800279
:10E65000403008614869800A80024030486188691A
:10E66000800A800240308861C869800A8002403098
:10E67000C86130BD106B284310630868800A8002AF
:10E68000403008604868800A8002403048608868EE
:10E69000800A800240308860C868800A800240306A
:10E6A000C8600869800A8002403008614869800AB1
:10E6B0008002403048618869800A80024030886169
:10E6C000C869800A80024030C8612AE0106BA84304
:10E6D0001063086A800A800240300862486A800A33
:10E6E000800240304862886A800A80024030886236
:10E6F000C86A800A80024030C862086B800A8002C3
:10E7000040300863486B800A800240304863886B61
:10E71000800A800240308863C86B800A80024030E3
:10E72000C863106B18431063106BC008C0001063FF
:10E73000106B2043106330BD00B547498BB00162B8
:10E7400046490122416246494161010020310A7374
:10E750000C224A7343498162434901604349416045
:10E760004349C161434981610020694642000A541E
:10E77000401C0006000E2828F8D33F482822FBF74B
:10E780004BFBFFF7F3FD3DA000F056FB4149202075
:10E79000486348633F494048803108623F494048E8
:10E7A0008163404981633E493F48403108603C4AAB
:10E7B0003E49403211603A4B3D4A40335A605A60FC
:10E7C0001A009060100081603A481100C86065200E
:10E7D000C86039480861086138484861486138486C
:10E7E0008861384888613848C8612020C861294854
:10E7F000416B0006274A8143014351631100496B75
:10E8000042149143234A51631100496B81430143F0
:10E81000100041630120FFF76DFE0BB000BD2B49D6
:10E820002B4801632B494163704701072A48090FB0
:10E8300001702748026901231B059A43026102699E
:10E840000F23DB019A4302610269C9010A43026195
:10E85000704721480078704765E1020069E10200D5
:10E8600049E102004DE1020019E102006DE1020000
:10E870005BE102001BE1020000418100525720636E
:10E880006F6D6D6F6E2072656720696E69740D0A19
:10E8900000000000400082002001DF0140008008ED
:10E8A00040088200C000C0005507500065006500A8
:10E8B0006500700055070000060600000404000013
:10E8C000034900102020000003000010715C6A0A58
:10E8D000806E800041C42A0800204000B748012112
:10E8E00001714179C90701D00021017170470120F0
:10E8F000C00501688213914301608168FF22813263
:10E900009143803181608168C909C9018160C16A10
:10E9100010221143C162AA4A8021D161416B402279
:10E9200011434163A748A84908617047A34800788C
:10E930007047A24908707047F0B50120C0054168D2
:10E940000223194341604168994341608168FF2275
:10E9500081329143803181608168C909C901816038
:10E960009749CC6980252C43CC61CC691C43CC6190
:10E97000CB6904242343CB61CB6901263343CB61AC
:10E98000CF6908231F438D4BBC465E70876885683E
:10E9900097438D4C954322690F231B039A4303230E
:10E9A0001B03D218F0239A433032964622691B0289
:10E9B0009A4303235B03D318F02293438760724684
:10E9C00022616746CF614268324342608222CA6157
:10E9D0006033236180358560F0BD784A10B550788A
:10E9E000012821D176498220C861D4784804FF21CA
:10E9F00081312300FBF77EEA0616040E0E19191664
:10EA000083688B43803383608168C909C901491CCD
:10EA1000816007E08368DB09DB019B1C83608368FE
:10EA20000B4383600020507010BD8368DB09DB015D
:10EA30005B1CF3E76148407800280AD1624801690D
:10EA40000122120491430161D00141680122114366
:10EA500041607047F0B55949FF25C8700121C905CB
:10EA60005A4A574C8135CE108F110300FBF742EA0A
:10EA70000658040D132E3A588868C009C001401C7E
:10EA800088608868A843803049E0506A304350620B
:10EA9000506AB84304E0506A30435062506A3843C9
:10EAA0005062506A01231B0418435062526A48485E
:10EAB0004262E26902208243E261486B40221043D5
:10EAC00048638868C009C001801C25E0506A304353
:10EAD0005062506AB8435062506A01231B041843C5
:10EAE00050620AE0506AB0435062506AB8435062C4
:10EAF000536A0120000483435362526A34484262DD
:10EB0000E26902208243E261486B4022104348637D
:10EB10008868C009C001401C8860886828438860F4
:10EB2000F0BD264880787047244900B5CA78294945
:10EB30001300FBF7E0E9040E0306090E7D214901ED
:10EB400007E07D21890104E0234902E00A00521E0A
:10EB5000FDD2401EFAD200BD204C2000FFF7E4FF9A
:10EB60001F491B48416219484162174940390869E9
:10EB70001C4A0004000C801808612000FFF7D4FF35
:10EB8000FEE70E4900B5C9780B00FBF7B4E9060EA5
:10EB90000406080A0C0E02210CE005210AE00921F6
:10EBA00008E00B2106E00D2104E0032102E00A0049
:10EBB000521EFDD2401EFAD200BD000001204000CE
:10EBC000400080006666000040088000D4234000BA
:10EBD000006E8000BC0C0000E02E0000B80B0000AE
:10EBE0000C2293700000333610B55549C40601233A
:10EBF0000022002C01DA4B7000E04A70C00701D0FF
:10EC00008B7010BD8A7010BD012210B5D205D1687D
:10EC100049084900D16001004A48FBF7C1F84A4958
:10EC200070220A604A604649401E8A7800029201BA
:10EC300010434A7852011043444A1B301060444844
:10EC400050604220106100209061D061414A1368F9
:10EC5000102423431360087048603F4ACA60108044
:10EC6000508010BD10B5394A05E00378401C946807
:10EC7000E402FCD5D3600B00491E0904090C002BEB
:10EC8000F3D110BD10B50A680F230F2A00D91A005E
:10EC90000B689B1A0B602D4B9968C902FCD5016863
:10ECA0004C1C04600978D960521EF5D110BD0CB51A
:10ECB0000091019003E0694601A8FFF7E3FF009887
:10ECC0000028F8D10CBD1E4910B50020486008701E
:10ECD000FF24013421482100FBF7C6F82048210019
:10ECE000FBF7C2F81FA000F0A7F810BD144810B53C
:10ECF00080680422817802700E2242701848C91C74
:10ED0000FFF7B0FFFFF7DFFF1BA000F095F810BD85
:10ED10000FB470B50A4D0499E86805AA001D0FF0FC
:10ED20007FFB04000104E868090C001DFFF79AFF4F
:10ED3000200070BC08BC04B01847002070470000D9
:10ED4000082040000024F400000A800000638000D6
:10ED50001040000040008000542640005424400031
:10ED600054254000636C6561725F756172745F6207
:10ED700075666665720D0A003120636C6561720DFF
:10ED80000A00000010B53649C40601230022002CF9
:10ED900001DA4B7000E04A70C00701D08B7010BDE3
:10EDA0008A7010BD012210B5D205D16802239943A3
:10EDB000D16001002B48FAF7F3FF2B4970228A63D8
:10EDC000CA632749401E02028878800102434878BE
:10EDD0004001024325481B320260254A426042221C
:10EDE000026100228261C261224803682024234319
:10EDF00003600A704A6010BD10B51C4A05E0037834
:10EE0000401C9468E402FCD5D3600B00491E090441
:10EE1000090C002BF3D110BD114910B5002048603A
:10EE200008700124A40214482100FBF71DF81348C0
:10EE30002100FBF719F810BD0FB410B5A0B022994E
:10EE400023AA68460FF0ECFA01040400090C684696
:10EE5000FFF7D2FF200020B010BC08BC04B0184758
:10EE6000182040000024F400000A8000006A80009E
:10EE70001040000040008000D8264000D82A400002
:10EE800030B5040900070023000F002906D001292E
:10EE900009D0022904D0032905D103E00C2302E0A4
:10EEA000082300E0402320251021002A04D0012A55
:10EEB00005D0022A07D105E02B430B4303E02B4387
:10EEC0008B4300E0AB43E10008182F498000401855
:10EED000036030BD00B5022201210420FFF7D0FFFE
:10EEE000022201210520FFF7CBFF0222012106208B
:10EEF000FFF7C6FF022201210720FFF7C1FF00BD77
:10EF000001090007000FC90008181F4980004018B8
:10EF10000068C007C00F704702090007000FD20049
:10EF2000101882001848121810680223002901D016
:10EF3000184300E098431060704710B504000121A9
:10EF4000FFF7EAFF00212000FFF7E6FF10BD0028D1
:10EF500001D00E49086070470B48016A890A89028E
:10EF60003C3101620848C030016803221204114399
:10EF70000160C168C2131143C16005480168821372
:10EF80001143016070470000000A80002420400007
:10EF90004000800010B504000078002807D0200051
:10EFA0000FF0F2FC0104090C2000FFF725FF002000
:10EFB00010BD0FB410B5FFB0A1B0A299A3AA6846C6
:10EFC0000FF02EFA01040400090C6846FFF714FF45
:10EFD0007FB0200021B010BC08BC04B01847F8B5C1
:10EFE00006000027FA483D004021FAF73DFF0024C3
:10EFF0007057222811D004DC002809D0202804D121
:10F0000036E02C2809D03D2832D0E00743D04BE031
:10F01000A00752D40420044346E0002D11DD7019EE
:10F0200000902038C07F5C280BD1E00709D0009801
:10F030000FF0AAFC0099421C481EFAF7EDFE6D1E67
:10F0400032E0A00706D4E00707D06408640002207D
:10F0500084431DE0E00730D0F7E70320DC49044398
:10F060007F1C7019BA005118401C8039C8671BE01A
:10F07000002D07DD701900902038C07F5C2801D179
:10F08000E007D4D1A0070FD4E0070DD064086400D6
:10F090000020705508E001200443CD487F1CBA00D1
:10F0A000711910188038C167600704D40520C001A9
:10F0B0006D1C85429CDBA00701D50220F8BD012F05
:10F0C00001DA0020F8BDC34C60684068002802D116
:10F0D000C1A0FFF76EFFBE4D2E2128680FF023FC64
:10F0E00000281BD02968411A286800F0E6FA0500BC
:10F0F00016D06068392605213601C9018019FAF752
:10F10000B3FE60680521AD683A00C901B04B8019B3
:10F11000A84760688019FFF73DFFD2E70021E3E7C9
:10F120000120F8BDAA4840387047F3B50C00A84943
:10F130000025403983B0A9A0FFF73BFF0026370028
:10F14000009621E0B20051180192896809680029EF
:10F1500017D0226803980FF039FC002810D10098CE
:10F16000401C0128009039D09A4A02289D490198F4
:10F1700052683AD08018806802689BA0FFF719FF98
:10F180007F1C761C402E06DA9248FF224168093225
:10F190005258BA42D6D8009801281DD1002D1BD054
:10F1A00028000FF0F1FB0100206805220E1A8119DA
:10F1B000D201914210D2039A411980183200FAF715
:10F1C0002BFE206803998019421C202322600B54D7
:10F1D000226803980021815405B0F0BD7D49019853
:10F1E0004968401880680568CAE7801880682A0066
:10F1F00003687FA0FFF7DDFEC2E710B5012101F033
:10F2000097F8002800D0012010BDFEB507000020AF
:10F21000441E0D00002F009401900ED06D484168EF
:10F220000320400209184869401CC20F12185208F6
:10F230005200801A002608611EE16A496FA0FFF79C
:10F24000B8FE20E1286839560D29F5D00A2918D0D2
:10F250001B291CD0019A002A7CD0002C1FDA0C003C
:10F260005B29E9D01B2139542868401C28603C5494
:10F270002868401C286057484068406800280BD028
:10F2800088E03E542E6001F090F80120FEBD012080
:10F29000841E00940190EFE021005CA078E0009AC9
:10F2A000002A02DA742900911AD00099412935D038
:10F2B000422933D074291AD01B2139542868401CA4
:10F2C00028603C542868401C2860009939542868FC
:10F2D000401C28603F4840684068002814D018E06F
:10F2E00040481B21017044703A480221017039489E
:10F2F0000178402937D33B490E70067000200190F9
:10F3000043A0FFF756FEB7E0009A210049A0FFF79F
:10F3100050FE344806702F4806703BE02D48052308
:10F3200042680320400211180869DB014343401C76
:10F330009B18C322D2009B18C20F12185208520009
:10F34000801A08610522D201190038000FF0D4EBB1
:10F35000390000E021E039A0FFF72BFE38000FF064
:10F3600013FB2860D5E72A68BB5C1E4A5354491C2E
:10F370000906090E01702B68FB5C6D2B7CD156547D
:10F38000491C017040684068002803D111002CA07E
:10F39000FFF70FFE002001906EE0082909D07F29B9
:10F3A00007D0092952D00B4840684068002853D044
:10F3B00055E0002860D0401E28600648406840683C
:10F3C000002859D1082211001EA0FFF7F2FD53E0DA
:10F3D000182F4000282040000D0A000025730D0A58
:10F3E00000000000D82E4000257325732000000087
:10F3F0002573257320257320000000002573696E96
:10F400006275665F6E756C6C0D0A00001B256300EB
:10F410004572726F723A206573635F746167206230
:10F420007566666572206F766572666C6F770D0A19
:10F43000000000001B256325630000000D0A232047
:10F440002573000025632025630000003E54290039
:10F450003800FFF76AFE0FE0AEA0FFF7AAFD2868AC
:10F460000521401CC9018842286005D3AA49ABA0E8
:10F47000FFF79FFD2E6006E02868C019FFF7BDFE6C
:10F48000012800D1DEE60020FEBD70B50620D4F7CD
:10F490001AFBAB4DA868002845D169680800FF3009
:10F4A0001130011FFFF7B1FE00283CD06C68FF341B
:10F4B000113420000FF068FA00281BD06968032679
:10F4C0007602881940690522D2015043C3224018B0
:10F4D000D20080180522FF31D20111310FF00CEB60
:10F4E000686881194869401CC20F121852085200FE
:10F4F000801A48616868FF3011300FF045FA01004A
:10F500002000FFF76CFD012802D0022807D00AE096
:10F51000220008D080498BA0FFF74BFD03E07E4915
:10F520008DA0FFF746FD00F040FF70BD30B5844967
:10F53000496800290DD00268002A0CD08268002A90
:10F5400009D0CA1DF93293681400402B16D200224C
:10F550000CE0012030BD0420C04330BD95006D1883
:10F56000AD68854201D1002030BD521C9342F5D8D0
:10F570009A0051185B1CA3608860F4E70520C04323
:10F5800030BD70B5016800290AD08168002907D014
:10F590006B4C002163681D00FF3301339A681FE044
:10F5A0000420C04370BD8E007619B668864216D11D
:10F5B000521E501A00289A6007DD82008800401908
:10F5C00001000C3108300FF058EA6068FF21093162
:10F5D00009580022890008188260100070BD491C7B
:10F5E0008A42E0D80520C04370BDF8B50E00040083
:10F5F00000250DE020000C34FFF798FF070006D02F
:10F600004549220059A0FFF7D4FC3800F8BD6D1C15
:10F61000B542EFDB0020F8BD70B50E0005000024F8
:10F6200006E028000C35FFF7ACFF002803D1641C6E
:10F63000B442F6DB002070BD414901208860002003
:10F64000704770B53E4C534D6068002806D10321C9
:10F650002800D4F723FB0028606016D02900FAF7B1
:10F6600003FC4D481C21FFF7C0FF05001BD060685C
:10F67000002803D0D4F798FB0020606026492A00B8
:10F6800046A0FFF796FC280070BD0524E4432249FC
:10F69000220048A0FFF78DFC1F49220050A0FFF771
:10F6A00088FC200070BD61680120086048605749EF
:10F6B0000620D4F7E5F9002070BDF3B50F00002453
:10F6C0001F4D260081B017E0A1000818806800686F
:10F6D000002806D0002F06D001993A000FF076F9E5
:10F6E00004E0641C06E001990FF03CEA00280BD00E
:10F6F000641C761C402C05DA6868FF210931095822
:10F70000B142E1D80020FEBD6968A00040188068C1
:10F71000FEBD000025630000D82E40002573457211
:10F72000726F723A20696E707574206275666665D4
:10F7300072206F766572666C6F770D0A00000000AC
:10F74000282040002573636F6D6D616E64206572C3
:10F75000726F720D0A000000257373796E74617800
:10F76000206572726F720D0A0000000025737265C9
:10F770006769737465725F636F6D6D616E6473202A
:10F7800065727220636D64206E756D733A25640D29
:10F790000A000000180B000054070400257345728E
:10F7A000726F723A2072657475726E3A2025640D1C
:10F7B0000A00000025734572726F72303A2046616C
:10F7C000696C656420746F20637265617465206381
:10F7D0006C6920656E763A2025640D0A00000000F1
:10F7E00025734572726F72313A204661696C6564A7
:10F7F00020746F2063726561746520636C69206595
:10F800006E763A2025640D0A000000008BF4020099
:10F81000F8B51C27FFF786FC0100F3A0FFF7C9FB32
:10F820000024F94D260029E0A10008180091806805
:10F83000006800281FD0FFF775FC010000982A68B7
:10F84000801880684368002B00D1F0A30268F0A004
:10F85000FFF7AFFB38001938761C86420BD1FFF753
:10F8600061FC0100EDA0FFF7A4FBFFF75BFC0100CA
:10F87000ECA0FFF79EFB641C402C05DA2868FF21F2
:10F8800009310958B142CFD8F8BD1CB5012A08D0BA
:10F89000022A14D0FFF746FC0100E9A0FFF789FB1C
:10F8A0001CBD00200090019068460EF007FBFFF79A
:10F8B00039FC01006A46E5A0FFF77BFB1CBD5868D8
:10F8C0000EF0F4FAFFF72EFC0100E4A0E6E71CB509
:10F8D00000201C00012A0090019002D0022A0BD0C7
:10F8E0000FE068460EF0F9FAFFF71CFC01006A46CB
:10F8F000DDA0FFF75EFB1CBD60680FF045F8062831
:10F9000006D0FFF70FFC0100CDA0FFF752FB1CBD96
:10F9100060680EF0DAFAFFF705FC0100CFA0F4E70B
:10F9200038B51C00012A02D0022A0BD00FE00EF0DD
:10F93000DEFA0400FFF7F6FB01002200CEA0FFF77D
:10F9400038FB38BD60680FF01FF8042806D0FFF7B9
:10F95000E9FB0100BAA0FFF72CFB38BD606801236A
:10F96000022269460EF065FA684600880EF0BCFA7D
:10F97000FFF7D8FB0100B9A0EDE730B589B01C0056
:10F98000150020216846FAF76FFA012D02D0022DEA
:10F990000CD01DE068460EF0B5FAFFF7C3FB01007E
:10F9A0006A46BAA0FFF705FB09B030BD60680EF0EB
:10F9B000EBFF1F280CD860680EF0E6FF01066068B8
:10F9C000090E0EF097FAFFF7ADFB0100A3A003E0CC
:10F9D000FFF7A8FB01009AA0FFF7EBFAE4E7FFF7B7
:10F9E000A1FB01009DA0FFF7E4FA0EF06DFCFEE71D
:10F9F00070B51C00012A08D0032A15D0FFF792FB2E
:10FA000001008FA0FFF7D5FA70BD0EF097FA050040
:10FA10000EF08CFA0400FFF785FB01002B0022009A
:10FA20009FA0FFF7C6FA70BD60680EF06FFF00067A
:10FA3000000E0EF077FAA0680EF068FF0004000CCC
:10FA40000EF078FAFFF76EFB010084A0DAE710B53C
:10FA5000012A08D0022A11D0FFF764FB010078A028
:10FA6000FFF7A7FA10BD0EF071FA0400FFF75AFB7A
:10FA70000100220090A0FFF79CFA10BD58680EF01C
:10FA800045FF0006000E0EF05DFAFFF74BFB01008C
:10FA900072A0E5E710B5012A08D0022A11D0FFF7BD
:10FAA00041FB010066A0FFF784FA10BD0EF05EFA7C
:10FAB0000400FFF737FB0100220083A0FFF779FA6B
:10FAC00010BD58680EF022FF0006000E0EF04AFA34
:10FAD000FFF728FB010061A0E5E77047704770471A
:10FAE000704730B51C001500022A85B024DC1421B3
:10FAF0006846FAF7B9F9022D0BD0684601F0A7FB6A
:10FB0000FFF710FB01006A4673A0FFF752FA05B039
:10FB100030BD60680EF038FF00066168000E01F02D
:10FB20009FFB002808D060680EF02EFF020061687D
:10FB30006846FAF771F9E3E7FFF7F4FA010040A02D
:10FB4000FFF737FAE3E7704730B51D00140087B0C0
:10FB5000FFF7E8FA0100654A230065A0FFF729FADC
:10FB6000012C02D0022C14D01EE004A80EF0ADFA35
:10FB7000FFF7D8FA01006846447D037DC27C807C93
:10FB80006D461DC56A46537C127C5DA0FFF711FAD5
:10FB900012E068680023062204A90EF04AF904A8BE
:10FBA0000EF076FA002807D0FFF7BCFA010024A077
:10FBB000FFF7FFF907B030BDFFF7B4FA010027A047
:10FBC000F6E710B5012A02D0022A0BD0BDE00EF0F4
:10FBD000ADFA0400FFF7A6FA0100220052A0FFF7D9
:10FBE000E8F9B2E0A8E0000025733D3D3D3D4275D7
:10FBF000696C642D696E20436F6D6D616E64733D39
:10FC00003D3D3D0D0A0000002C204000000000009A
:10FC1000257325733A2025730D0A000025730D0AFC
:10FC20000000000025733D3D3D3D55736572204346
:10FC30006F6D6D616E64733D3D3D3D0D0A000000CA
:10FC400025730D0A4552524F520D0A0025730D0AB5
:10FC50002B5645523A25730D0A00000025730D0AF4
:10FC60004F4B0D0A0000000025730D0A2B534E3A2E
:10FC700025730D0A0000000025730D0A2B55554908
:10FC8000443A253034580D0A0000000025730D0A4F
:10FC90002B4445564E414D453A25730D0A00000050
:10FCA00025730D0A2B5744543A25642C20307825AF
:10FCB000303458720A00000025730D0A2B534C454E
:10FCC00045503A25640D0A0025730D0A2B41444323
:10FCD000454E3A25640D0A0025730D0A2B4E414D01
:10FCE000453D25730D0A4F4B0D0A0000A408040082
:10FCF0002573257320617267632025640D0A000057
:10FD000025730D0A2B4D41433A20253032582530BA
:10FD10003258253032582530325825303258253067
:10FD200032580D0A0000000025730D0A2B504F5762
:10FD300045523A25580D0A0058680EF0E7FD0006B6
:10FD4000000E0F2806D80EF0E9F9FFF7EBF90100D5
:10FD5000D04804E0FFF7E6F90100CE481C38FFF771
:10FD600028F910BD70471FB500201C00012A009023
:10FD700001900290039002D0022A0CD01DE0684648
:10FD80000EF0E8F9FFF7CEF90100C2486A463030BC
:10FD9000FFF70FF91FBD60680EF0F6FD10280CD8B4
:10FDA00060680EF0F1FD00066168000E0EF0C2F909
:10FDB000FFF7B8F90100B74804E0FFF7B3F9010015
:10FDC000B4481C38FFF7F5F81FBD704770471CB5E5
:10FDD0001C00022A04D160680EF0D6FD0C2807D062
:10FDE000FFF7A0F90100AB481C38FFF7E2F81CBD93
:10FDF00060680023062269460EF01BF8062168465B
:10FE00000DF062FF68464079800900D00120694604
:10FE10008871019900980EF0B7F90DF0D5FF040034
:10FE2000FFF780F9010022009BA0FFF7C2F81CBD7C
:10FE30001CB51C00022A2CD160680EF0A5FD01281B
:10FE400004D060680EF0A0FD0C2822D160680EF08E
:10FE50009BFD0128606817D00EF096FD02006068D7
:10FE6000002369460DF0E5FF68460DF06AFF411C6E
:10FE70000FD00006000E01F0BFF9FFF753F90100A3
:10FE80008448FFF796F81CBD0EF040FD00060016F2
:10FE9000EFE7FFF747F901007E481C38F1E770B53E
:10FEA000834C1D00012A09D0022A0FD0FFF73AF92E
:10FEB000010078481C38FFF77CF870BDE079042811
:10FEC00002D07CA17CA029E086A1FBE7686886A11E
:10FED0000EF048EE00280CD0686884A10EF042EEC7
:10FEE0000028EAD1E079042813D081A0FEF7A4FF0E
:10FEF00070BDE07904280AD083A0FEF79DFFE17968
:10FF000085A0FEF799FF012001F056FC70BD89A085
:10FF1000ECE7012001F050FCE1798CA0FEF78CFFAA
:10FF200070BD70B558681C000EF0F0FC0604A068A7
:10FF3000360C0EF0EBFC0504E0682D0C0EF0E6FC30
:10FF40000404240C23002A00310087A0FEF774FF6C
:10FF50009149B01F88421AD2FF20F430854216D84A
:10FF600020000A38091F884211D20A20210041438B
:10FF7000681C704382008018401C4010814206DBE0
:10FF80002200290030000EF006F9002805D0FFF706
:10FF9000C9F801003F481C3803E0FFF7C3F801002F
:10FFA0003C48FFF706F870BD10B501F067F910BDC9
:10FFB00070B51C00022A1BDC08D00EF081F9040089
:10FFC000FFF7B0F82200010074A01EE060680EF098
:10FFD0009DFC0500010075A0FEF72EFF28000EF025
:10FFE00010F900280CD128000EF050F9002807D095
:10FFF000FFF798F8010027481C38FEF7DAFF70BDBC
:020000040003F7
:10000000FFF790F8010062686CA0FEF7D2FF70BDA8
:1000100070B5274D1C00012A02D0022A0FD006E03D
:100020002879072809D023A16AA0FEF705FFFFF76A
:1000300079F8010017481C3828E02AA1F4E7606825
:1000400029A10EF090ED002812D060686CA10EF08E
:100050008AED00280CD0606824A10EF084ED002801
:100060000DD0606867A10EF07EED002807D009E092
:100070002879072806D0012001F0E2FA02E0287969
:100080000728F8D0FFF74EF801000248FEF791FF6D
:1000900070BD00005CFC020025730D0A2B47415423
:1000A00054535441543D25642C320D0A0000000085
:1000B000A83340004F66660055736167653A205368
:1000C00063616E206F6E2F6F66662E205363616EC4
:1000D0002069732063757272656E746C7920257364
:1000E0000D0A00004F6E00006F6E00006F66660024
:1000F0007363616E2063757272656E746C792069CA
:1001000073206F66660D0A007363616E20736574F9
:10011000206F6E0D0A0000007363616E20736574BA
:10012000206F6E206375725F73746174653A256425
:100130000D0A00007363616E2063757272656E74E0
:100140006C79206973206F6E0D0A00007363616E15
:1001500020736574206F6666206375725F737461C7
:1001600074653A25640D0A00636F6E6E5F696E7484
:10017000763A25642C636F6E6E5F6C6174656E6396
:10018000793A25642C636F6E6E5F7375705F746F60
:100190003A25640D0A0000007B0C000025730D0A4F
:1001A0002B424155443D25640D0A0000626175648F
:1001B000726174653D25640D0A00000025730D0A07
:1001C0002B424155443D25730D0A0D0A4F4B0D0A34
:1001D0000000000055736167653A20416476206F26
:1001E0006E2F6F66662E20416476206973206375DA
:1001F0007272656E746C792025730D0A0000000020
:100200004F4E00004F464600704710B5234C6268C1
:10021000216823A0FEF710FE0020206060602068A7
:100220002021084320602068042188432060206842
:1002300089040843206020688A00104320602368F6
:1002400048000343236063688343636063680B4330
:10025000636061681143616061680143616010BD62
:10026000704770B50D4EB568680703D50420044388
:1002700000F0C9FD680204D501208005044304F0A4
:10028000DDF8E80204D5012000050443EAF745FD46
:10029000B460B0682843B06070BD000040008000CA
:1002A0005359535F526567307831303A25782C5373
:1002B00059535F526567307831313A25780D0A001D
:1002C00000207047704701207047704770477047A3
:1002D00010B541A0FEF7B0FD10BD70B5414C0D004A
:1002E00021886288914206D3218801229202511A04
:1002F0006288891802E061882288891A0904090C39
:10030000A9420ED3228838498B1801002A00180010
:10031000F9F782FD208840198005800D208001209A
:1003200070BD6288218831A0FEF786FD002070BD77
:1003300070B52C4C0D0021886288914203D321882E
:100340006288891A05E0618801229202511A228886
:1003500089180904090CA9420DD362882249891819
:100360002A00F9F759FD608840198005800D6080EA
:100370002806000E70BD002070BD70B5194D002418
:100380006C802C80FF26013621483100F9F76CFD86
:1003900020483100F9F768FD1F4804601FA0AC80B9
:1003A000FEF74AFD70BD0020704770B50D4800246F
:1003B000448004800125AD021E482900F9F754FD50
:1003C0001D482900F9F750FD1C4804601C480460D2
:1003D0001CA0FEF731FD70BD756172745F697372A8
:1003E0000D0A000034204000582F40006E6F206539
:1003F0006E6F75676820627566662066696C6C2032
:10040000646174612025642C25642121210D0A007A
:1004100054244000542540000C2040007561727443
:10042000305F72696E676275665F636C65616E20CE
:100430000D0A0000D8264000D82A40001C204000A9
:100440002020400075617274315F72696E67627559
:10045000665F636C65616E200D0A0000FB4BD96915
:10046000FF22F1320A400243981308400243F84841
:1004700008400243580301400A43DA611868002823
:10048000FCDB7047F14910B50A68002AFCDBF14A31
:100490000A600A68002AFCDB0022531E4B60521CD3
:1004A000082AFBD309690160EBA0FEF7C5FC002018
:1004B00010BDE64801680029FCDBE64901600168DF
:1004C0000029FCDB00214A1E4260491C0829FBD39D
:1004D00000697047DD4801680029FCDBE2490160E2
:1004E00001680029FCDB40690006000E704770B50A
:1004F0000E000400FFF7DDFFDC4D0100A86881421B
:1005000048D1DB4AD14B811A90421AD008DCD94934
:1005100040180ED0D849401810D0012809D10DE05C
:1005200009208002081A04D0D449401809D00128B3
:1005300007D0D8690F210903884305E0D869D0495D
:1005400001E0D869CF490840D861002E22D0022CA2
:1005500020D8D869B1020122520211430843D86160
:1005600018680028FCDBFFF7A4FFA968884211D1B6
:10057000012C02D0022C02D003E0C34900E0C349A1
:10058000196018680028FCDB7D20000318601868DB
:100590000028FCDB70BDB548B5498068421A884226
:1005A00019D008DCBA49401813D0BA4940180ED007
:1005B000012809D10BE009208002101A04D0AF49AC
:1005C000401808D0012806D0982101208FE7B249B1
:1005D00002E0AC21F9E7AC210220F7E7A348A449E7
:1005E0008068421A884219D008DCA949401813D003
:1005F000A84940180ED0012809D10BE0092080023B
:10060000101A04D09D49401808D0012806D09C211A
:1006100001206CE7BC2102E0BC21F9E79421022013
:10062000F7E710B5FFF745FF904C0100A0609BA0D5
:10063000FEF702FCFFF74EFF8D4AA1688B1A91422C
:1006400021D008DC924A891819D0924A891812D010
:10065000012909D10FE009218902591A04D0874ADA
:10066000891810D001290ED09C2803D09C2101208C
:10067000FFF73DFF10BDBC28FCD0BC2106E0BC2824
:10068000F8D0BC21F3E79428F4D094210220EFE7BE
:100690006E4AD06911680029FCDBC021014010239B
:1006A000194303071B0F0B430121490201400B4370
:1006B000674901400B430121890608400343D36188
:1006C0006A48734980684942884201D1774800E00E
:1006D0007748106010680028FCDB704700B5FFF712
:1006E000D7FF5A48C16970229143C161C169102284
:1006F0001143C16101680029FCDB00BD10B5FFF7A3
:1007000090FFFFF7EBFF0820FFF7A8FE10BD704732
:1007100070B50600F9F7C4EB0500F9F7CCEB04005F
:1007200052480179AB2914D14079BC2811D1FFF787
:1007300032FF464908680028FCDB2D2000060643EE
:100740000E6008680028FCDBFFF748FF59A0FEF7A1
:1007500073FB002D01D1F9F7B8EB002C01D1F9F7AB
:10076000BCEB70BDF7B514000D000026002A8CB05C
:1007700049D0F9F796EB0A90F9F79CEB33490990C9
:1007800008680028FCDB601E00274009401C089018
:1007900023E025200006290001432C480160016860
:1007A0000029FCDB002120356A46284880688B0040
:1007B000491C0829D050F8D378012030A04203D238
:1007C0000C988019202202E00C98A21B801969461F
:1007D000F9F722FB089820367F1CB842D9D81B486D
:1007E0007D210903016000214A1E4260491C08293D
:1007F000FBD30A98002801D1F9F766EB0998002885
:1008000001D1F9F76AEB0FB0F0BDF7B5150000267E
:100810008CB0002A08917DD001208004814279D3D8
:10082000F9F73EEB0B90F9F746EB084C0A9020687D
:100830000028FCDB0D48C2218170FFF7ACFE681E6A
:1008400000274009401C099082E000000020800041
:1008500000FCFF0300D007346964656E7469667933
:100860003A307825780D0A0000D007233C2040005C
:100870001340C800EDBFAEFF001D8FFF0024E8FF4E
:10088000FF0FDFFFFF0FFEFE00D0076400D00767F9
:10089000EDCEE3FF000E5AFF8C080000666C61731A
:1008A000685F6D69643D25780A00000000D0073656
:1008B00000D00737666C6173685F65726173655F4E
:1008C000736563746F72000078012030A84203D210
:1008D0000C98811920220AE00020411E6A468300FC
:1008E000401C0828D150FAD30C98AA1B81196846DD
:1008F000F9F792FAC248D123C37000202036694626
:1009000082008A586260401C0828F9D3BC480178EC
:10091000A62900E037E016D14178B32913D1216828
:100920000029FCDB8078C2280AD1D12B08D1089895
:1009300001218904884226D30B21890608432060BF
:1009400020680028FCDB08982030089009987F1C5C
:10095000B842B9D8FFF742FE7D2000032060A848C6
:1009600000218170C1700800491E6160401C082888
:10097000FBD30B98002801D1F9F7A6EA0A980028C2
:1009800001D1F9F7AAEA3EE79E4810B501680029AF
:10099000FCDBC2699A499C4B8968994215D09B4CF3
:1009A0009B4BA14202D0641EA14204D151014909CE
:1009B0000122120403E0510149090122D20411432A
:1009C000C161036001680029FCDB10BDF8B58F1818
:1009D000080A3C0A1E0000022402A04208D0651A40
:1009E0002A001800FFF7BEFE21007A1A701900E0F5
:1009F0001800FFF7B7FE0020F8BDFFB516000B008A
:100A000081B0FFF756FD7E4CA168884208D0FFF701
:100A100050FD01007FA0FEF70FFAFF2005B0F0BDEA
:100A2000A6209F19190A3D0A207009022D02B32041
:100A3000A9420BD019006E1A607004983200FFF7BB
:100A4000E4FE049829007A1A801903E06070049883
:100A500032001900FFF7D9FE002020706070DDE73A
:100A6000F0B5050001200C0016000003814289B09A
:100A700027D8002C25D0290B09030F183800FFF7C1
:100A800047FE3005000D3F1819E0202C01DD20261F
:100A900000E02600002000906248320080682900B3
:100AA00001ABFFF793FF002000905E4832008068A2
:100AB000390001ABFFF7A1FFA41BAD19BF19002C32
:100AC000E3DC09B0F0BDF0B5050001200C00160014
:100AD0000003814289B0F4D8002CF2D0290B09031D
:100AE0000F1A3800FFF714FE3005000D3F18202CB8
:100AF00001D9202600E0260000200090494832005D
:100B00008068290001ABFFF761FF00200090454895
:100B100032008068390001ABFFF76FFFA41BAD19ED
:100B2000BF19002CE3D1CCE7F8B5354CAB2016004B
:100B30000D002071FFF7BDFCA168884204D03AA0E7
:100B4000FEF77AF9FF20F8BD3EA0FEF775F92D0BF0
:100B50002D03BC2037130026607106E02800FFF744
:100B6000D7FD012000032D18761CBE42F6DB0020C5
:100B700020716071F8BDF0B5FFB082B035A0FEF70E
:100B80005BF900253F267603FF223100280001ABE8
:100B90000095FFF71BFF33A0FEF74EF9002701ACCD
:100BA000E15D33A0FEF748F97F1CFF2FF8DB31A091
:100BB000FEF742F9002041A90854401CFF28FBDB46
:100BC0000B00FF22310000200095FFF716FFFF22E7
:100BD0003100002001AB0095FFF7F8FE21A0FEF7E1
:100BE0002BF90025615D22A0FEF726F96D1CFF2D73
:100BF000F8DB20A0FEF720F97FB002B0F0BD0000C6
:100C00003C2040000020800013311C001423C2004F
:100C100000D00727666C617368203D203078257806
:100C20000D0A000058334000666C6173685F6D699F
:100C30006420213D206765745F666C6173685F495D
:100C4000440D0A00666C6173685F65726173650DBF
:100C50000A000000666C6173685F746573740A2033
:100C600000000000725F74656D70313A2000000072
:100C700025782C000A200000F7B5050001001400BB
:100C800075A0FEF7D9F8032D0AD2794F01263878DE
:100C90003100A940084204D1290076A0FEF7CCF823
:100CA000FEBD79786001491CF9F77AF8040001006B
:100CB00076A0FEF7C1F80198791988707748002D61
:100CC0000CD0012D13D0022DEAD1C26804218A4331
:100CD000C2608460C2680A43C260FEBDC168490840
:100CE0004900C1600460C1683143C160FEBDC26893
:100CF00002218A43C2604460ECE710B5684C0100F1
:100D0000227868A0FEF798F82078401C0006000EB4
:100D10000328207004D16D4A00210120FFF7ACFFA9
:100D200020780A2805D17D22012112010800FFF751
:100D3000A3FF10BD010010B565A0FEF77DF810BD42
:100D4000010010B569A0FEF777F810BD08B56E4830
:100D50007D2301220090DB0011000020BFF344FA44
:100D60006A487D23012200901B0104211000BFF37B
:100D70003BFA08BD70B50400010065A0FEF75CF801
:100D8000032C31D2454A0421002C04D0012C06D07A
:100D9000022C08D114E0D0684008400002E0D0687E
:100DA00002239843D0603248012203781500A54001
:100DB000AB43E51CAA4093435A07037003D00BE0F2
:100DC000D0688843EEE70122D205D3680B43D36095
:100DD000554A13688B431360A20000211218116258
:100DE000017852A0FEF728F870BD2C49CA6801238B
:100DF00083401A40CA6070472849CA68012383406B
:100E00001A40CA607047F8B5244DE8680024800590
:100E1000470F01263000A040010038420FD014488F
:100E200002199278002A02D1EA688A43EA60A10096
:100E30000818016A002902D02006000E8847641CA9
:100E4000032CE7DBF809E9680143E960E968C909AF
:100E500039404907F7D1F8BD74696D6572305F7329
:100E600065745B25645D2C2564200D0A000000007C
:100E70007C334000746D72305F5B25645D206E6F63
:100E80007420696E69740D0A0000000074696D6554
:100E9000725F76616C3A25640D0A0000006580007F
:100EA0004820400074696D6572305F305F6973720D
:100EB0005F68616E646C65723A25642C7465737446
:100EC0005F636E743A25640D0A0000008813000009
:100ED00074696D6572305F315F6973725F68616EEE
:100EE000646C65723A25640D0A00000074696D65D2
:100EF00072305F325F6973725F68616E646C6572D5
:100F00003A25640D0A000000FB0C0300350D0300B8
:100F100074696D6572305F6465696E69745B2564C0
:100F20005D200D0A0000000040008000746D7230EA
:100F30005F656E762E696E69745F656E3A25780D11
:100F40000A0000000F48002181605A214160A5215C
:100F5000416070470B4900224A6088605A2048600F
:100F6000A5204860704707485A214160A52141608B
:100F70007047044900224A6088605A204860A520D2
:100F800048607047000C800070B504000D0001201F
:100F9000C005C16842139143C16020003030000693
:100FA0000222000E1100FDF76BFF5148E2002A43B8
:100FB000024350480260504981600321C1604F499B
:100FC0000A68C3131A430A60032D03D1016804227F
:100FD0001143016070BD30300006002210B5000ED4
:100FE0001100FDF74DFF43480168C908C9000160C1
:100FF00042480168C213914301604004C168421332
:101000001143C16010BD3B4810B50168C2131143C4
:1010100001603B4A012111700168C943890703D16E
:10102000016938A0FDF708FF10BDF3B5344E314C0F
:10103000002581B035702068C043800723D0206828
:10104000019AD2005118091D08432060FF272D374F
:101050006D1C2D042D0CBD4205D80A20FDF791FD15
:1010600030780028F4D03078012807D12069800337
:10107000010CB180019A27A0FDF7DEFE2068C009AF
:10108000C0012060B088FEBDF8B5294CE069012799
:10109000FF043843E061E1692648C161012107206E
:1010A000FFF772FF164D002601210720FFF7BDFF55
:1010B0006988401868807D20C000FDF762FD761CBD
:1010C0003606360E062EEFD368880621F8F768FE3E
:1010D00001001948F8F764FE0100E88017A0FDF749
:1010E000ABFEE069B843E061E1691248C161F8BD57
:1010F000800B12000067800020000100400080008B
:101100004A2040006164635F76616C75653D2578B7
:101110000D0A0000675F6164635F76616C75653D11
:1011200025782C6368616E6E656C3D25780D0A002C
:10113000D4234000006E8000B54A000072656665E9
:1011400072616E63655F766F6C746167653D25647F
:101150000D0A000070B56B485021F8F785FE6A490A
:101160000320D2F7CDFF00210320D3F705F8654C0B
:10117000122022001B32A0761500511E022002F020
:101180005EFD002806D00C22280060A1F8F744FE7E
:101190000C20A07601F0DEF801F090F800F0DEFF00
:1011A00002F08CF902F076FB02F020FC05F0CCF89E
:1011B0005948012303220721D2F788FE012101703B
:1011C000D2F79DFE55A0FDF737FE70BD70B54D4DB1
:1011D0000024287E052807D05749800008588047FA
:1011E000287E401C0124287653492200143153A044
:1011F000FDF722FE200070BD0102CA1C10B5544844
:1012000002230831D2F762FE0121017013214170DF
:10121000D2F775FE10BD10B504003A480E23807851
:10122000032201024A4808310A30D2F74FFE092151
:1012300001702188418061888180A188C180E18816
:101240000181444941818181D2F759FE10BD10B519
:101250002C4C2100A27E1B31F8F7DEFDA07E10BDD4
:1012600010B5122808D2274C0200A07620001B30AF
:10127000F8F7D2FDA07E10BD002010BDF8B5002605
:1012800035A0FDF7D9FD00242002C01C05042D0C5B
:101290002800D2F7A6FF0200210033A0FDF7CCFD05
:1012A0002800D2F79EFF02280ED02800D2F799FF1F
:1012B000032809D02800D2F794FF032804D028007F
:1012C000D2F78FFF042815D1E000761C011B0D48D2
:1012D0003606360E00250F1878194030417827A0C1
:1012E000FDF7AAFD6D1C062DF6DB4037F97925A028
:1012F000FDF7A2FD641C022CC6DB24A0FDF79CFDBB
:101300003000F8BDA8334000F81E040052572D42AB
:101310004C452D4445563100020D00006170706D42
:101320005F73656E645F6761706D5F72657365742E
:101330005F636D640D0A0000AC0804002573206D26
:101340006F72655F7376633A25640D0A00000000D2
:10135000040E0000FFFF00000D0A2B4348494E46D3
:101360004F7B0D0A000000006964783A25642C73F5
:10137000746174653A25780D0A00000025303278D2
:10138000000000002C25782C330D0A002B4348491F
:101390004E464F7D0D0A0D0A4F4B0D0A000000000E
:1013A00070B5A848022303220721D2F78FFDA64D6E
:1013B000A7240470E9784170D2F7A1FD6C7170BD6B
:1013C000F8B5A048232303220721C01CD2F77EFDD5
:1013D0009D4EA9210170F1780400871C4170002105
:1013E0004180B57E001D1A2D00D31A25691C01709D
:1013F000B17EA94201D1092100E008214170924942
:101400002A001B31801CF8F707FD3888AD1C4019F5
:1014100038808EA0FDF710FD002505E060190179E8
:101420008DA0FDF709FD6D1C6088A842F6DC8CA03C
:10143000FDF702FD2000D2F762FD02203071A920E5
:101440007071F8BDF8B5804C8649227986A0FDF709
:10145000F3FC2079002507260300F8F74CED090678
:101460001F223A573A57596F71006D202C230322DF
:1014700007214001D2F72AFDA027077045700321FC
:101480000571C18045720125067745774571476131
:101490008761D2F734FD2571677151E0FFF790FF46
:1014A0004EE06848232303220721C01CD2F70EFD1B
:1014B000AA2605000670E07871A168700A20020073
:1014C0006880281DF8F7A8FC2800D2F718FD032033
:1014D00019E064496DA02D39FDF7AEFC207905288F
:1014E00001D003282CD157483A2303220721801E1C
:1014F000D2F7ECFCA4260670E178417045800571B6
:10150000D2F7FDFC06202071667119E0267117E004
:1015100054495EA01639FDF78FFC4A480223032286
:101520000721401ED2F7D2FCA5250570E178417055
:10153000D2F7E5FC08202071657101E005202071DB
:10154000217954A0FDF778FCF8BDF0B50D180C001A
:1015500089B0012620216846F8F786FC694608789C
:101560000221084369460122087022E067783B00A7
:10157000F8F7C0EC1D1C1010101010101010101CEB
:101580001C1C1C1C1C1C1C1C1C1C1C1C10101010CB
:1015900010101C00FB087F079C46CB5C10007F0FDF
:1015A000B840034207D1034360460B542078641CC3
:1015B0000419AC42DAD3AC4200D00026300009B0A6
:1015C000F0BDF8B50F000500FFF7BFFF002807D0FA
:1015D0001D4E3079052805D0072803D04320F8BDDB
:1015E0004A20F8BD1748232303220721C01CD2F745
:1015F0006DFCA9210170F1780400417000211C2DBF
:10160000418005D82A003900201DF8F705FC6580C7
:101610000EA0FDF711FC002505E0601901790EA070
:10162000FDF70AFC6D1C6088A842F6DC0CA0FDF7F3
:1016300003FC2000D2F763FC042030710020F8BDC9
:1016400000E70000A30D0000A8334000616476208D
:1016500064617461000000003A25303278000000B7
:101660000D0A0000FA0804002573206375722061DA
:1016700064765F73746174653A25780D0A00000022
:1016800009FF006052572D424C45000025730D0A9A
:1016900000000000656E64206164765F737461749D
:1016A000653A25780D0A0000F8B59E4D9E49EA7905
:1016B0009EA0FDF7C1FBE87902283BD1A1483A235F
:1016C00003220721D2F702FC0400A4202070A8798D
:1016D00000269D4F60700120A670E07002206946D0
:1016E0002A0008703B680A329C209847002802D0E4
:1016F00096A0FDF7A1FB8B4A3B680C329D20694602
:101700009847002802D091A0FDF796FBAA89698925
:1017100097A0FDF791FB68890420E0802081267165
:101720000A20E68120822000D2F7E9FB0320E8713D
:10173000A4202872F8BD70B5824802230322072135
:10174000801CD2F7C3FB774DA7240470A9794170A0
:10175000D2F7D5FB2C7270BD70B5724C7249E2792C
:1017600013318AA0FDF768FBE0790300F8F7C2EBBC
:10177000060407070A0C1D1F00F0B3F817E0FFF777
:1017800093FF14E0042011E06E4802230322072196
:10179000401CD2F79BFBA5250570A1794170D2F7BB
:1017A000AEFB0520E071257201E00220E071E179D5
:1017B0007BA0FDF741FB70BDCEE730B504000020F3
:1017C00003000EE0CD186D78012D05D0022D03D059
:1017D000082D09D0092D07D0CD5C5B1CEB181B062A
:1017E0001B0EA342EED330BD002007E01D186D187C
:1017F000AD78401C0006000E1570521CCD5C6D1EAD
:101800008542F3DCC85C5B1CC01803061B0E01207C
:10181000E7E7F8B5070000200D000400009033E072
:101820002E197078012806D0022846D008282FD01B
:10183000092824D12CE05FA0FDF7FEFAB67860A05D
:101840003100FDF7F9FAF00702D05FA0FDF7F4FAD6
:10185000B00702D564A0FDF7EFFA700702D56AA0C1
:10186000FDF7EAFA300702D56EA0FDF7E5FAF006BB
:1018700002D575A0FDF7E0FA48A0FDF7DDFA285D76
:10188000641C00190406240EBC42C9D30098F8BD9C
:101890000120009073A0FDF7CFFA002608E0A01900
:1018A0004019817872A0FDF7C7FA761C3606360E0D
:1018B000285D401EB042F2DCDEE76EA0FDF7BCFA08
:1018C000002609E0A0194019C27881786BA0FDF7C5
:1018D000B3FAB61C3606360E285D401EB042F1DC67
:1018E000CAE770B50F4C1049E279143966A0FDF7CC
:1018F000A3FAE079002813D16D20022303220721E7
:101900004001D2F7E3FAA125002105704170D2F71A
:10191000F6FA0120E0716420257260811420A08114
:1019200070BD0000A83340002009040066756E6396
:101930002025732C7363616E5F73746174653A253F
:10194000640D0A00A10D0000D40B40006E6F7420DE
:10195000666F756E643A4E5644535F5441475F5309
:1019600043414E5F5744206572720D0A000000002B
:101970007363616E5F696E74763A25642C7363617C
:101980006E5F77643A25640D0A00000025732073AA
:1019900063616E5F73746174653A25780D0A0000A7
:1019A000656E64207363616E5F73746174653A255C
:1019B000780D0A0041445F54595045203A200000F8
:1019C00025303278200000007C204741505F4C4594
:1019D0005F4C494D5F444953434F56455241424C39
:1019E000455F464C472000007C204741505F4C45F6
:1019F0005F47454E5F444953434F56455241424C21
:101A0000455F464C472000007C204741505F4252D2
:101A10005F4544525F4E4F545F535550504F5254A0
:101A2000454420007C204741505F53494D554C5F51
:101A300042525F4544525F4C455F434F4E54524FB4
:101A40004C4C4552200000007C204741505F5349D8
:101A50004D554C5F42525F4544525F4C455F484F85
:101A6000535420004144565F4E414D45203A2000DA
:101A70002563000055554944203A2000253032782E
:101A8000253032782020000066756E632025732C87
:101A90007363616E5F73746174653A25640D0A0047
:101AA00013B5F84807226946F8F7B6F91CBD10B51A
:101AB000F4490722F8F7B0F910BDF3B5F24DF34938
:101AC000EA7B85B0F2A0FDF7B7F900200490E87B2F
:101AD000022868D1F4483A2303220721D2F7F6F905
:101AE0000400A4202070A87B0026694660700120B5
:101AF000A670E0700A20E082142020830220EB4FC1
:101B000008732A003B6812329E2003A998470028D8
:101B100002D0E7A0FDF790F9DB4A3B6814329F2022
:101B200003A99847002802D0EAA0FDF785F9D64A14
:101B30003B681632A02003A99847002802D0EEA0E7
:101B4000FDF77AF9EB8AAA8A698AF5A0FDF774F99C
:101B5000688A6B46E081688A2082A88A6082E88A67
:101B6000A0827D20C000A080382006556846427EB5
:101B7000017EC07D07C36846837D427D017DF4A060
:101B8000FDF75AF920000622323005A9F8F744F98A
:101B90006889E080A88920812000D2F7B0F903206D
:101BA000E873A4202874049807B0F0BD70B5B74955
:101BB000F3A01631FDF740F9B34C0025E07B002877
:101BC00002D00225280070BDB74802230322072156
:101BD000401CD2F77BF9A5260670A17B4170D2F795
:101BE0008EF90520E0736671ECE71CB5A64CA74999
:101BF000E27B2C31E5A0FDF71FF9E07B0300F8F74D
:101C00007AE9060407071115131500F06DFA0DE0C7
:101C10009C4907226846F8F7FFF801990098FFF7FA
:101C20004CFF03E0042000E00220E073E17BDCA035
:101C3000FDF702F91CBDD8E7FFB506000402150048
:101C4000E01C81B0D2F7CDFA904902003F31D9A013
:101C5000FDF7F2F8029A3100DBA0FDF7EDF8002065
:101C60000090E01CD2F7BDFA04280BD002200090AF
:101C7000E01CD2F7B6FA0100DAA0FDF7DDF8009813
:101C800005B0F0BD27004B37380003F001F8010024
:101C900028000A300304DB481B0CE21CD2F716F9BB
:101CA0000400067002982A00A0802000E5800499B4
:101CB0000A30F8F7B1F8380002F0EAFF0100D2A0CC
:101CC000FDF7BAF82900D4A0FDF7B6F8002605E024
:101CD0000498815DD4A0FDF7AFF8761CAE42F7DB27
:101CE0007BA0FDF7A9F82000D2F709F9C7E7FFB5F7
:101CF00005000402E01C81B0D2F773FA63490200C8
:101D00005B31CBA0FDF798F8039B029A2900CEA087
:101D1000FDF792F80026E01CD2F763FA00281ED0E7
:101D200027004B37380002F0B3FF0100B548E21C32
:101D30000823801CD2F7CAF80400380002F0A8FF7C
:101D40000100B1A0FDF778F8257002986080039833
:101D5000A0800498E0802000D2F7D1F807E00226A6
:101D6000E01CD2F73EFA0100C2A0FDF765F8300092
:101D700086E7F8B50E004549040017007A3180A0C7
:101D8000FDF75AF820020025C01CD2F72AFA0428D1
:101D900009D002250320D2F724FA010091A0FDF713
:101DA0004BF82800F8BD4B2002F072FF0100954867
:101DB00018230322801ED2F789F8040086713200AE
:101DC0003900C01DF8F728F8002060700120A070CD
:101DD0002000D2F794F8E4E770B50D002B49060017
:101DE0009D3167A0FDF728F830020024C01CD2F70F
:101DF000F8F9042809D002240320D2F7F2F90100EF
:101E000078A0FDF719F8200070BD4B2002F040FFCC
:101E100001007C4818230322801ED2F757F80021C6
:101E2000858041708170D2F76AF8ECE770B50D00DB
:101E300016490600C23152A0FCF7FEFF3002002412
:101E4000C01CD2F7CEF9042809D002240320D2F70F
:101E5000C8F9010063A0FCF7EFFF200070BD4B2024
:101E600002F016FF0100674818230322801ED2F7F4
:101E70002DF801218580417000218170D2F73FF853
:101E8000EBE7000052204000A8334000570904004F
:101E900066756E632025732C696E69745F73746157
:101EA00074653A25640D0A00A10D0000D40B4000B2
:101EB0006E6F7420666F756E643A4E5644535F546D
:101EC00041475F434F4E4E5F494E545620657272F4
:101ED0000D0A00006E6F7420666F756E643A4E5680
:101EE00044535F5441475F434F4E4E5F4C41542033
:101EF0006572720D0A0000006E6F7420666F756E59
:101F0000643A4E5644535F5441475F434F4E4E5FD1
:101F10005355505F544F206572720D0A0000000047
:101F2000636F6E6E5F696E74763A25642C636F6EB4
:101F30006E5F6C6174656E63793A25642C636F6EB5
:101F40006E5F73757065725F746F3A25640D0A0079
:101F5000636F6E20616464726573733A202530325A
:101F6000782D253032782D253032782D2530327875
:101F70002D253032782D253032780D0A00000000F2
:101F800066756E632025730D0A00000025732069B5
:101F90006E69745F73746174653A25780D0A000088
:101FA000656E6420696E69745F73746174653A2547
:101FB000780D0A0066756E632025732C7374617446
:101FC00065203D2025782C00636F6E6964783A2582
:101FD000642C68616E646C65203D20307825303457
:101FE000780D0A006B655F73746174655F67657473
:101FF000285441534B5F41505029203D2025780DF6
:102000000A000000044B000064657374203D20301A
:1020100078253034780D0A0064617461206C656E37
:102020003A25642C000000002530327820000000A2
:1020300066756E632025730D0A2C737461746520B8
:102040003D2025782C000000636F6E6964783A2586
:10205000642C68616E646C65203D203078253034D6
:10206000782C6E74665F636667203D203078257833
:102070000D0A00006B655F73746174655F6765745A
:10208000285441534B5F4150504329203D2025782F
:102090000D0A000070B50D00060026492648FCF721
:1020A000CBFE30020024C01CD2F79BF804280AD0D3
:1020B00002240320D2F795F801001F486430FCF792
:1020C000BBFE200070BD4B2002F0E2FD01001B486A
:1020D00018230322D1F7FAFE0221858041700021E6
:1020E0008170D1F70CFFECE770B5154C1149E27B1C
:1020F000FF3914A0FCF7A0FEE07B002818D16D206A
:102100000223032207214001D1F7E0FEA225002689
:1021100005704670D1F7F3FE0120E0731820257496
:102120006082C820A682E082642060811420A081A1
:1021300070BD0000450A0400801F0300024B000030
:10214000A833400066756E632025732C696E697430
:102150005F73746174653A25640D0A002E4800218E
:10216000017064214170704710B52C482023032270
:102170000721D1F7ABFE1B21017000212422417001
:102180004280032282800122C18002734273D1F710
:10219000B6FE10BD10B504001F480470242002F0E4
:1021A00077FD01002202092004238002D21CD1F70E
:1021B0008DFE00210470417032218170D1F79FFEA5
:1021C00010BD10B50400242002F062FD0100144887
:1021D00002230322D1F77AFE002101704470D1F767
:1021E0008EFE10BD10B54A780E490FA0FCF724FEF4
:1021F000002010BD0B4910B524310FA0FCF71CFEC8
:10220000002010BD074910B53B310BA0FCF714FEB0
:10221000002010BD00207047592040001B0D000019
:1022200002240000980A040025732C6E74665F6314
:1022300066673A25640D0A0025730D0A0000000048
:10224000F8B50E0009781800002425000B00F7F7F8
:1022500052EE0906091215181B0C1E0F200010243F
:1022600021A516E00A2425A513E0082426A510E0E0
:10227000072428A50DE00A2428A50AE005242AA59C
:1022800007E005242AA504E005242BA501E0062487
:102290002BA501002C48A31CD1F718FE07003078AD
:1022A000002C38707C7004D022002900B81CF7F78D
:1022B000B3FD3800D1F723FE0020F8BD704710B5FC
:1022C00022480E2303220721D1F700FE1B210170B3
:1022D0000021142241704280032282801C4AC18066
:1022E0008281D1F70CFE10BD526976696572615723
:1022F00061766573205341530000000052572D4210
:102300004C452D312E300000123456FFFE9ABCDEB3
:1023100000000000025E044000000300312E302E59
:10232000302E302D4C450000312E302E3000000074
:10233000362E312E32000000362E332E30000000B3
:10234000FFEEDDCCBBAA0000031400001B0D000053
:10235000FF01000008B50120694608708B4A9320F0
:1023600001F06DFC89490022002804D10878012879
:1023700002D0002800D00A7008BD84480078704759
:10238000824810B50178012906D1002101700200B0
:102390000121932001F0A2FC10BD10B504007C497E
:1023A0007CA0FCF749FD21027C480223032208316E
:1023B000D1F78CFD0C21017001214170D1F79FFDF7
:1023C00010BDF8B518000D00010074482223032247
:1023D000801FD1F77BFD29786D4A040088002C3AD4
:1023E00012586FA0FCF728FD29780120002904D09D
:1023F000052934D0072949D10EE020706070714959
:1024000020710020487703211022A1706271E070D2
:102410002072E171A17139E0607007202070F7F738
:10242000E9FC00256082F7F7E5FC6619B070F7F764
:10243000E1FC6D1C2D062D0E082D3075F3D30825FB
:10244000F7F7D8FC61196D1C2D062D0E102D887024
:10245000F6D3A21C1C21982001F040FC16E00621B6
:102460006A461170607057490520207010220D31A6
:10247000A01CF7F7D1FC220012320120694601F0BE
:10248000DEFBE07D800900D0012020762000D1F71E
:1024900036FD0020F8BD70B50C0009783C4A1D00DF
:1024A00088002C3A125848A0FCF7C6FC2178280A6C
:1024B000891E0B00F7F71EED070521241B242418A5
:1024C000240032490120087046A0FCF7B5FC2F4AD1
:1024D0000121932001F002FC01210020E9F794F88A
:1024E00002000721962005E0FEF786FE08E0A21C08
:1024F00017219B2001F0F2FB02E00020FFF74DFFC7
:10250000002070BD30B51C000D0089B03AA0FCF76A
:1025100093FC1C21684601702048122303222100ED
:10252000801ED1F7D3FC04000020207017480078EB
:1025300000281CD0982001AA694601F080FB0028E1
:1025400015D169462888898A884210D105A90822B0
:102550000231A81CF7F793FC002808D10120207055
:10256000102002006074601C01A9F7F755FC2000E0
:10257000D1F7C5FC002009B030BD10B5097823A003
:10258000FCF75AFC002010BD002070475B20400083
:10259000280B040025730D0A000000001A0E00002D
:1025A000676170635F626F6E645F7265715F696EB1
:1025B0006420726571756573743A2564203A2573D9
:1025C0000D0A0000C8334000676170635F626F6E80
:1025D000645F696E6420696E666F3A25642C2573AA
:1025E0000D0A000050414952494E475F535543433D
:1025F0004545440D0A000000656E63727970745F92
:102600007265715F696E640D0A000000656E637229
:102610007970745F696E6420617574683A25640D21
:102620000A000000FB4A002133234B43D35C834262
:1026300004D1332041438818401C7047491C372976
:10264000F2DBF5487047F54A002133234B43D35C56
:10265000834204D1332041438818401C7047491CF1
:102660001E29F2DBEC487047FEB515000C0001791D
:10267000EB4E17E00768CA00083ABA1884CA0092FD
:102680006A4601971288A24201D0B24207D1019E48
:10269000032229002000B0470006000EFEBD491E9F
:1026A0000906090E0029E5D10020FEBD10B50C0079
:1026B000DC49DDA0FCF7C0FBDD480179012902D12E
:1026C0006178002904D0C1790222012906D008E0EE
:1026D00021780222C170A256D6A00AE061780129B1
:1026E00003D0C17B012907D00FE021788171C2712D
:1026F000D7A0FCF7A1FB08E06178022905D1217879
:102700008173C273DBA0FCF797FB002010BD10B5EE
:102710008A780C00C349DCA02231FCF78DFBC44849
:102720000179072902D16178002904D0C2790521F5
:10273000042A05D007E008210171FEF783FE10E0AE
:102740006278012A03D0C27B042A04D009E0C17157
:10275000FFF702F805E06278022A02D1C173FFF7A1
:1027600044FA002010BD38B510000C00D1F739FD37
:10277000A088AC490090638822884431C6A0FCF749
:102780005BFB002038BDFEB50C00102069460872C6
:102790002078150AFFF746FF617800902A00019122
:1027A000A04923786331C8A0FCF746FB20780025B8
:1027B000A22871D017DC9E4F39002D3120371B28FD
:1027C000009154D008DC0126012816D01A240328D1
:1027D0007DD01A2852D152E0282869D0A02877D07D
:1027E000A128F7D1A0E0A438914E0300F7F782EBBF
:1027F00007AABDCECECBA4A4CE0060780028E9D134
:10280000BC48342303220721D1F760FB04000320D6
:1028100020700F206070FB20E6766084B648221D91
:10282000A084B64801A9E0840120A57601F007FA4A
:10283000002805D1607A800902D0A07E3043A076BE
:10284000FFF79BFD002806D0009A9A2002A901F00C
:10285000F6F9002806D0200010210A30F7F704FB13
:10286000200054E01022200000990A304CE0FEF7CE
:10287000ADFC002802D10120FEF7E2FE86E0B87F21
:1028800001280AD09B481123032207211F30D1F7CA
:102890001DFB0400BD7732E04AE00220B87795487E
:1028A0000123032207211530D1F710FB04702EE01D
:1028B000FFF763FD002804D1009A10219A2001F04F
:1028C0000DFA01210320BD77D1F756FC01E003E0AA
:1028D00032E0FEF77BFC59E0FFF74FFD002819D0EE
:1028E000009A9A2002A901F0AAF900284ED1814845
:1028F0001123032207211F30D1F7E8FA0400282012
:10290000207000991022601CF7F786FAA8E7D1F72B
:10291000F6FA3BE077480123032207211530D1F76F
:10292000D5FA0470BE77F2E76078002828D02DE051
:102930006078002816D029E06078002826D1FEF7BC
:1029400081FD23E06078002820D13079062801D16C
:10295000FEF778FDF079032801D1FEF7FDFEF07B4C
:10296000032813D1FFF741F910E0607800280DD15A
:102970003079082801D1FEF765FDF079052805D1E9
:10298000FEF7EAFE02E03571F571F5730020FEBD39
:10299000F8B517000A780D0022491E00783158A0BA
:1029A000FCF74AFA29785A48002905D00024012961
:1029B00015D002291DD11EE01C233A003100D1F7A9
:1029C00085FA040028782070201DFEF740FC0100E5
:1029D0006080221D4FA0FCF72FFA200007E00A2399
:1029E0003A003100D1F772FA297801704480D1F7AA
:1029F00086FA0020F8BD0A233A003100D1F766FAC2
:102A000029780170082141800A218180C821C48071
:102A10000181ECE7740B04005C204000691604009F
:102A2000FFFF0000631C040025730D0A0000000076
:102A3000A83340006164765F616374765F6964788F
:102A40003A25642C74785F7077723A25640D0A0019
:102A50007363616E5F616374765F6964783A25645D
:102A60002C7363616E5F73746174653A25640D0A3B
:102A700000000000696E69745F616374765F696469
:102A8000783A25640D0A000025732C726561736F16
:102A90006E3A25780D0A00002573207072665F7407
:102AA00061736B5F69643A25782C7072665F74613C
:102AB000736B5F6E623A25642C73746172745F6825
:102AC000646C3A25640D0A00257320636F6E696497
:102AD000783A25642C6F7065726174696F6E3A3054
:102AE0007825782C25732C7374617475733A257866
:102AF0000D0A0000040D0000480800000F0200004D
:102B000025732C7265713A307825780D0A00000023
:102B10000B0E00006C656E6774683A25642C6E615C
:102B20006D653A25730D0A0010B518000C00010000
:102B3000EF480223D1F7CAF948214170217801708A
:102B4000D1F7DDF9002010BD70B5180AE94D13006A
:102B50000C000200A870E849E8A0FCF76DF9A8781D
:102B6000FF2871D0208828802188EBA0FCF764F929
:102B700060880DF0AAECEC4B00220DF0BCEC0200DA
:102B80000B00EAA0FCF758F9A188EEA0FCF754F975
:102B9000E1880A204143F0A0FCF74EF9617AF2A0E7
:102BA000FCF74AF9F6A0FCF747F90026A019817A4C
:102BB000F7A0FCF741F9761C3606360E062EF5D343
:102BC000F5A0FCF739F9A878617AC200101A40190B
:102BD0004030C171A8780622C100081A40192100AE
:102BE0000A314130F7F718F9217CAA78C1483F3003
:102BF0001154207C002801D0E8A100E0E9A1EBA05D
:102C0000FCF71AF9A87834230102B948CA1C0B381A
:102C10000831D1F75BF90600FFF7AFFB2821885593
:102C20003000D1F76CF9207C002802D1A87803F09D
:102C30004CFDA878FFF7AEFAA87802210002C01C6C
:102C4000D1F79AFA03E0FFE70120FEF7F9FC002034
:102C500070BD10B5A74CA849180AA070D6482031FD
:102C6000FCF7EAF8A078FF280FD00102E120062344
:102C7000032200010831D1F729F901210170CF4960
:102C800041808180D1F73BF902E00120FEF7D8FCBA
:102C9000002010BD70B50C0097491D0A4231C8A034
:102CA000FCF7CAF82900CFA0FCF7C6F820880DF081
:102CB0000CEC9D4B00220DF01EEC02000B00CDA091
:102CC000FCF7BAF86188D2A0FCF7B6F8A1880A2010
:102CD0004143D4A0FCF7B0F8002070BD38B50C001B
:102CE0001D0A00938449130002006131D1A0FCF752
:102CF000A3F82900DAA0FCF79FF8A188DBA0FCF775
:102D00009BF8E188DFA0FCF797F82188E2A0FCF7A8
:102D100093F86188E6A0FCF78FF8002038BD7CB5F9
:102D200008780C00150AFFF78EFC61780090A24825
:102D30000191714923782A007E31A030FCF77CF89C
:102D400000207CBD10B5140A8A786B49DDA0933150
:102D5000FCF772F820020021C01CD1F70DFA012007
:102D6000FEF76EFCDC480178A14201D1FF21017021
:102D7000002010BD7CB51500020A0024242A2ED0A4
:102D800006DC0C2A12D00E2A12D0142A06D122E018
:102D9000472A18D0482A1AD04A2A24D056490093E4
:102DA00001902B00AF31CDA0FCF746F820007CBD90
:102DB000D94A8218092AF9D80A000100D748FFF732
:102DC00053FC0400F2E70A000100D548F7E70A00C7
:102DD0000100D448F3E70A000100D348EFE70A00F6
:102DE0000100D248EBE70A000100D148E7E741487B
:102DF00010B52030807F012802D0022804D008E0DE
:102E00003C4808222D3002E03A4808223530F7F7D6
:102E100003F8002010BD70B50C0037496648C0317A
:102E2000FCF70AF82178C3A0FCF706F86178C5A082
:102E3000FCF702F8A17CC6A0FBF7FEFF112161564A
:102E4000C5A0FBF7F9FF217AC6A0FBF7F5FFC9A0E3
:102E5000FBF7F2FF002560198178C8A0FBF7ECFFB3
:102E60006D1C062DF7DB4CA0FBF7E6FF218BC5A000
:102E7000FBF7E2FFC7A0FBF7DFFF002505E06019C5
:102E8000817EBEA0FBF7D8FF6D1C208BA842F6DC2C
:102E900041A0FBF7D1FF00232100207E1A001A3148
:102EA000FEF7B7FCBDA0FBF7C7FF002070BDF8B56B
:102EB0000C001E0A0093104913000200E031C2A06A
:102EC000FBF7BAFF2178CCA0FBF7B6FF002505E0A1
:102ED000401B215CCEA0FBF7AFFF6D1C2078A84201
:102EE000F6DC22000221300000F0D0FB0020F8BD0B
:102EF0000D0E0000A8334000FD1C04002573206364
:102F00006F6E6964783A25642C646573745F6964D4
:102F10003A307825780D0A00636F6E68646C3A2544
:102F200064200D0A000000000000F43F636F6E5F34
:102F3000696E74657276616C3A252E3266200D0AD0
:102F400000000000636F6E5F6C6174656E63793AB8
:102F50002564200D0A0000007375705F746F3A25B8
:102F600064200D0A00000000706565725F61646492
:102F7000725F747970653A2564200D0A00000000C4
:102F8000706565725F616464723A307800000000B9
:102F900025303278000000000D0A0000536C617685
:102FA000650000004D61737465720000726F6C659E
:102FB0003A2573200D0A0000282A0300FFFF0000B5
:102FC0006170706320257320646573745F69643A6F
:102FD000307825782C7372635F69643A307825788D
:102FE0000D0A0000636F6E6964783A2523780D0A34
:102FF00000000000636F6E5F696E74657276616CCD
:10300000203D20252E3266206D730D0A0000000041
:10301000636F6E5F6C6174656E6379203D2025641B
:103020000D0A00007375705F746F203D2025640DDC
:103030000A0000002573206D736769643A307825B3
:10304000782C646573745F69643A307825782C73E2
:1030500072635F69643A307825780D0A00000000D9
:10306000636F6E6964783A25782C0000316D617861
:103070005F72785F6F6374657473203D2025640D03
:103080000A000000316D61785F72785F74696D6568
:10309000203D2025640D0A00316D61785F74785FF2
:1030A0006F6374657473203D2025640D0A00000071
:1030B000316D61785F74785F74696D65203D20259E
:1030C000640D0A0025732C726561736F6E3A307857
:1030D00025780D0A00000000CD23400025732C73D5
:1030E00072635F7461736B5F69643A307825782C22
:1030F000646573745F69643A307825782C73726301
:103100005F69643A307825782C6D736769643A306A
:103110007825780D0A000000EEF1FFFF6C0B04002B
:103120003C1F0400D81F0400F40A0400900A0400A5
:1031300044200400616374765F6964783A25780DF1
:103140000A000000696E666F3A25780D0A000000DB
:1031500063683A25640D0A00727373693A25640D39
:103160000A000000616464725F747970653A2578C2
:103170000D0A000061646472000000003A253032DC
:103180007800000064617461206C656E3A25640DFE
:103190000A00000064617461000000002A2A2A2AE3
:1031A0002A2A2A2A2A2A2A2A2A2A2A2A2A2A2A2A7F
:1031B0002A2A2A2A2A2A2A2A2A2A2A2A2A2A2A2A6F
:1031C0002A2A2A2A0D0A00006170706320257320C4
:1031D0006D736769643A307825782C646573745F21
:1031E00069643A307825782C7372635F69643A3089
:1031F0007825780D0A000000696E64207575696491
:10320000206C656E3A25642C757569643A0000007F
:10321000253032782000000070B51C0010000D0031
:10322000D0F7DFFF210A50A0FBF706FE698855A002
:10323000FBF702FE002405E0281981795A48FBF7C4
:10324000FBFD641C6888A042F6DC58A0FBF7F4FD87
:10325000002070BD70B510000D00D0F7C2FF54A063
:10326000FBF7EAFD002405E0281981794E48FBF7B9
:10327000E3FD641C6888A042F6DC4CA0FBF7DCFD93
:10328000002070BD38B51D0A009313000C00020029
:103290004C494D48FBF7D0FD4B4829002C30FBF73B
:1032A000CBFD6288218849A0FBF7C6FD002038BD10
:1032B00070B50D0043494C482231FBF7BDFDEA795A
:1032C00029784AA0FBF7B8FD4FA0FBF7B5FD002415
:1032D000281941784EA0FBF7AFFD641C062CF7DBE4
:1032E00032A0FBF7A9FD002070BD70B51D001600CF
:1032F0000C001000D0F775FF32492D0A2B00320068
:10330000403145A0FBF798FD6388627821784AA098
:10331000FBF792FD20780D2801D00C2805D160889C
:10332000A52802D050A0FBF787FD207816280BD1E6
:1033300028020421C01CD0F71FFF55A0FBF77CFD1D
:103340000121280003F05CFE20780C2809D1608858
:10335000AA2806D155A0FBF76FFD0021280003F035
:103360004FFE002070BD000067617474635F657676
:10337000656E745F696E6420636F6E6964783A2568
:10338000640D0A004E4F5449462052454349564564
:10339000206C656E6774683A25642C76616C75657F
:1033A000203D200D0A000000103203000D0A00002D
:1033B0005245434956452076616C7565203D202075
:1033C0000D0A0000F71D040034300300696E642DFF
:1033D0003E6D7475203D2025642C736571203D2061
:1033E00025640D0A00000000282A0300616374763A
:1033F0005F6964783A25642C616464725F747970E3
:10340000653A25640D0A00006164647220000000C2
:103410003A253032782000006170702025732064D6
:103420006573745F6964203D2025782C636F6E6935
:1034300064783A25640D0A006F7065726174696F73
:103440006E203D20307825782C737461747573205C
:103450003D20307825782C7365715F6E756D203D49
:1034600020307825780D0A000D0A7E7E7E7E7E7ED5
:103470007365742073656E645F646174615F656E0B
:1034800061626C655F666C616720310D0A00000047
:103490000D0A415050435F534552564943455F43DF
:1034A0004F4E4E45435445440D0A00000D0A474116
:1034B0005454435F57524954450D0A0010B5A8486B
:1034C0001A21F6F7D1FC10BD212310B5A5481B0128
:1034D00003220721D0F7FAFC04001B2020700021F2
:1034E0004720617060800320A080E1800E210A00E7
:1034F0002000E18110309CA1F6F78EFC2000D0F76F
:10350000FEFC10BDF7B5050004020E00E01C82B001
:10351000D0F767FE92496A005718798A0300320093
:103520000091954995A0FBF787FC0025E01CD0F79A
:1035300058FE022803D00225280005B0F0BD788A85
:10354000002814D0472001F0A3FB812301009248FA
:10355000E21C9B00D0F7BAFC4680040004993200BC
:10356000001DF6F759FC2000D0F7C9FCE4E703255D
:10357000E2E7F8B5040017000D000026472001F02F
:1035800087FB01008448220281239B00C01CD21CBF
:10359000D0F79CFC040045802A003900001DF6F796
:1035A0003BFC2000D0F7ABFC3000F8BD70B50C0040
:1035B00049881D0079A0FBF73FFC6188684A280A0A
:1035C000400080184182002070BD70B50C00498811
